{
  "_format": "hh3-artifact-1",
  "contractName": "MorphpAdapter",
  "sourceName": "contracts/adapters/MorphoAdapter.sol",
  "abi": [
    {
      "inputs": [
        {
          "internalType": "address",
          "name": "_core",
          "type": "address"
        }
      ],
      "stateMutability": "nonpayable",
      "type": "constructor"
    },
    {
      "inputs": [],
      "name": "AssetMismatch",
      "type": "error"
    },
    {
      "inputs": [],
      "name": "Unauthorized",
      "type": "error"
    },
    {
      "inputs": [
        {
          "internalType": "address",
          "name": "asset",
          "type": "address"
        },
        {
          "internalType": "uint256",
          "name": "amount",
          "type": "uint256"
        },
        {
          "internalType": "bytes",
          "name": "allocationData",
          "type": "bytes"
        },
        {
          "internalType": "address",
          "name": "liquidityMigrator",
          "type": "address"
        }
      ],
      "name": "allocateLiquidity",
      "outputs": [],
      "stateMutability": "nonpayable",
      "type": "function"
    },
    {
      "inputs": [],
      "name": "core",
      "outputs": [
        {
          "internalType": "address",
          "name": "",
          "type": "address"
        }
      ],
      "stateMutability": "view",
      "type": "function"
    },
    {
      "inputs": [
        {
          "internalType": "address",
          "name": "asset",
          "type": "address"
        },
        {
          "internalType": "uint256",
          "name": "amount",
          "type": "uint256"
        },
        {
          "internalType": "bytes",
          "name": "protocolData",
          "type": "bytes"
        },
        {
          "internalType": "address",
          "name": "destinationAdapter",
          "type": "address"
        }
      ],
      "name": "extractLiquidity",
      "outputs": [],
      "stateMutability": "nonpayable",
      "type": "function"
    }
  ],
  "bytecode": "0x60a0604052348015600e575f5ffd5b50604051610688380380610688833981016040819052602b91603b565b6001600160a01b03166080526066565b5f60208284031215604a575f5ffd5b81516001600160a01b0381168114605f575f5ffd5b9392505050565b6080516105fe61008a5f395f818160700152818160b901526101ce01526105fe5ff3fe608060405234801561000f575f5ffd5b506004361061003f575f3560e01c806350ca245014610043578063b118194d14610058578063f2f4eb261461006b575b5f5ffd5b610056610051366004610371565b6100ae565b005b610056610066366004610371565b6101c3565b6100927f000000000000000000000000000000000000000000000000000000000000000081565b6040516001600160a01b03909116815260200160405180910390f35b336001600160a01b037f000000000000000000000000000000000000000000000000000000000000000016146100f6576040516282b42960e81b815260040160405180910390fd5b5f5f8380602001905181019061010c9190610431565b91509150856001600160a01b031682602001516001600160a01b031614610146576040516341e0808560e11b815260040160405180910390fd5b604051635c2bea4960e01b81526001600160a01b03821690635c2bea499061017a90859089905f9033908a90600401610504565b60408051808303815f875af1158015610195573d5f5f3e3d5ffd5b505050506040513d601f19601f820116820180604052508101906101b99190610540565b5050505050505050565b336001600160a01b037f0000000000000000000000000000000000000000000000000000000000000000161461020b576040516282b42960e81b815260040160405180910390fd5b5f5f838060200190518101906102219190610431565b91509150856001600160a01b031682602001516001600160a01b03161461025b576040516341e0808560e11b815260040160405180910390fd5b60405163a99aad8960e01b81526060906001600160a01b0383169063a99aad89906102929086908a905f9030908890600401610562565b60408051808303815f875af11580156102ad573d5f5f3e3d5ffd5b505050506040513d601f19601f820116820180604052508101906102d19190610540565b505050505050505050565b6001600160a01b03811681146102f0575f5ffd5b50565b80356102fe816102dc565b919050565b634e487b7160e01b5f52604160045260245ffd5b60405160a0810167ffffffffffffffff8111828210171561033a5761033a610303565b60405290565b604051601f8201601f1916810167ffffffffffffffff8111828210171561036957610369610303565b604052919050565b5f5f5f5f60808587031215610384575f5ffd5b843561038f816102dc565b935060208501359250604085013567ffffffffffffffff8111156103b1575f5ffd5b8501601f810187136103c1575f5ffd5b803567ffffffffffffffff8111156103db576103db610303565b6103ee601f8201601f1916602001610340565b818152886020838501011115610402575f5ffd5b816020840160208301375f60208383010152809450505050610426606086016102f3565b905092959194509250565b5f5f82840360c0811215610443575f5ffd5b60a0811215610450575f5ffd5b50610459610317565b8351610464816102dc565b81526020840151610474816102dc565b60208201526040840151610487816102dc565b6040820152606084015161049a816102dc565b60608201526080848101519082015260a08401519092506104ba816102dc565b809150509250929050565b80516001600160a01b03908116835260208083015182169084015260408083015182169084015260608083015190911690830152608090810151910152565b610120810161051382886104c5565b60a082019590955260c08101939093526001600160a01b0391821660e08401521661010090910152919050565b5f5f60408385031215610551575f5ffd5b505080516020909101519092909150565b61056c81876104c5565b8460a08201528360c082015260018060a01b03831660e08201526101206101008201525f825180610120840152806020850161014085015e5f6101408285010152610140601f19601f830116840101915050969550505050505056fea26469706673582212209595b135f4bbfd3cd7d6f3baf5dd6fcfb7896a6e06ec52d5288e29dd5fe9f14164736f6c634300081c0033",
  "linkReferences": {},
  "deployedLinkReferences": {},
  "immutableReferences": {
    "416": [
      {
        "length": 32,
        "start": 112
      },
      {
        "length": 32,
        "start": 185
      },
      {
        "length": 32,
        "start": 462
      }
    ]
  },
  "inputSourceName": "project/contracts/adapters/MorphoAdapter.sol",
  "buildInfoId": "solc-0_8_28-54b20a2e6c8f4fa3dc36726fbb9125bb91c06e1c"
}