{
  "_format": "hh3-artifact-1",
  "contractName": "BleethMeCore",
  "sourceName": "contracts/BleethMeCore.sol",
  "abi": [
    {
      "inputs": [
        {
          "internalType": "address",
          "name": "initialOwner",
          "type": "address"
        },
        {
          "internalType": "address",
          "name": "_entropy",
          "type": "address"
        },
        {
          "internalType": "address",
          "name": "_pyth",
          "type": "address"
        }
      ],
      "stateMutability": "nonpayable",
      "type": "constructor"
    },
    {
      "inputs": [],
      "name": "AuctionNotFinalized",
      "type": "error"
    },
    {
      "inputs": [],
      "name": "BetAlreadyPlaced",
      "type": "error"
    },
    {
      "inputs": [],
      "name": "BettingPeriodClosed",
      "type": "error"
    },
    {
      "inputs": [],
      "name": "BettingPeriodNotFinalized",
      "type": "error"
    },
    {
      "inputs": [
        {
          "internalType": "bytes32",
          "name": "key",
          "type": "bytes32"
        }
      ],
      "name": "EnumerableMapNonexistentKey",
      "type": "error"
    },
    {
      "inputs": [],
      "name": "InsufficientBetAmount",
      "type": "error"
    },
    {
      "inputs": [],
      "name": "InvalidPenalization",
      "type": "error"
    },
    {
      "inputs": [],
      "name": "InvalidPositionVerification",
      "type": "error"
    },
    {
      "inputs": [],
      "name": "InvalidState",
      "type": "error"
    },
    {
      "inputs": [],
      "name": "NotEnoughLiquidityExtracted",
      "type": "error"
    },
    {
      "inputs": [
        {
          "internalType": "address",
          "name": "owner",
          "type": "address"
        }
      ],
      "name": "OwnableInvalidOwner",
      "type": "error"
    },
    {
      "inputs": [
        {
          "internalType": "address",
          "name": "account",
          "type": "address"
        }
      ],
      "name": "OwnableUnauthorizedAccount",
      "type": "error"
    },
    {
      "inputs": [],
      "name": "PositionMerkleTreeNotSet",
      "type": "error"
    },
    {
      "inputs": [],
      "name": "RewardTokenNotWhitelisted",
      "type": "error"
    },
    {
      "anonymous": false,
      "inputs": [
        {
          "indexed": true,
          "internalType": "bytes32",
          "name": "poolId",
          "type": "bytes32"
        },
        {
          "indexed": true,
          "internalType": "address",
          "name": "user",
          "type": "address"
        }
      ],
      "name": "BetPlaced",
      "type": "event"
    },
    {
      "anonymous": false,
      "inputs": [
        {
          "indexed": true,
          "internalType": "uint256",
          "name": "vaPoolId",
          "type": "uint256"
        }
      ],
      "name": "BettingFinalized",
      "type": "event"
    },
    {
      "anonymous": false,
      "inputs": [
        {
          "indexed": true,
          "internalType": "uint256",
          "name": "vaPoolId",
          "type": "uint256"
        },
        {
          "indexed": true,
          "internalType": "address",
          "name": "token",
          "type": "address"
        },
        {
          "indexed": true,
          "internalType": "uint256",
          "name": "amount",
          "type": "uint256"
        },
        {
          "indexed": false,
          "internalType": "address",
          "name": "user",
          "type": "address"
        }
      ],
      "name": "LiquidityPositionAllocated",
      "type": "event"
    },
    {
      "anonymous": false,
      "inputs": [
        {
          "indexed": true,
          "internalType": "uint256",
          "name": "vaPoolId",
          "type": "uint256"
        },
        {
          "indexed": true,
          "internalType": "address",
          "name": "token",
          "type": "address"
        },
        {
          "indexed": true,
          "internalType": "uint256",
          "name": "amount",
          "type": "uint256"
        },
        {
          "indexed": false,
          "internalType": "address",
          "name": "user",
          "type": "address"
        }
      ],
      "name": "LiquidityPositionDeconstructed",
      "type": "event"
    },
    {
      "anonymous": false,
      "inputs": [
        {
          "indexed": true,
          "internalType": "address",
          "name": "previousOwner",
          "type": "address"
        },
        {
          "indexed": true,
          "internalType": "address",
          "name": "newOwner",
          "type": "address"
        }
      ],
      "name": "OwnershipTransferred",
      "type": "event"
    },
    {
      "anonymous": false,
      "inputs": [
        {
          "indexed": true,
          "internalType": "uint256",
          "name": "vaPoolId",
          "type": "uint256"
        },
        {
          "indexed": true,
          "internalType": "bytes32",
          "name": "merkleRoot",
          "type": "bytes32"
        }
      ],
      "name": "PositionsMerkleRootUpdated",
      "type": "event"
    },
    {
      "anonymous": false,
      "inputs": [
        {
          "indexed": true,
          "internalType": "address",
          "name": "token",
          "type": "address"
        },
        {
          "indexed": true,
          "internalType": "bytes32",
          "name": "priceFeedId",
          "type": "bytes32"
        }
      ],
      "name": "RewardTokenWhitelisted",
      "type": "event"
    },
    {
      "anonymous": false,
      "inputs": [
        {
          "indexed": true,
          "internalType": "address",
          "name": "user",
          "type": "address"
        }
      ],
      "name": "RewardsClaimed",
      "type": "event"
    },
    {
      "anonymous": false,
      "inputs": [
        {
          "indexed": true,
          "internalType": "uint256",
          "name": "vaPoolId",
          "type": "uint256"
        },
        {
          "indexed": true,
          "internalType": "address",
          "name": "attacker",
          "type": "address"
        },
        {
          "indexed": true,
          "internalType": "address",
          "name": "victim",
          "type": "address"
        }
      ],
      "name": "VAPoolCreated",
      "type": "event"
    },
    {
      "anonymous": false,
      "inputs": [
        {
          "indexed": true,
          "internalType": "address",
          "name": "user",
          "type": "address"
        },
        {
          "indexed": true,
          "internalType": "address",
          "name": "token",
          "type": "address"
        },
        {
          "indexed": true,
          "internalType": "uint256",
          "name": "amount",
          "type": "uint256"
        }
      ],
      "name": "WithdrawFailedBet",
      "type": "event"
    },
    {
      "inputs": [
        {
          "internalType": "uint64",
          "name": "sequence",
          "type": "uint64"
        },
        {
          "internalType": "address",
          "name": "provider",
          "type": "address"
        },
        {
          "internalType": "bytes32",
          "name": "randomNumber",
          "type": "bytes32"
        }
      ],
      "name": "_entropyCallback",
      "outputs": [],
      "stateMutability": "nonpayable",
      "type": "function"
    },
    {
      "inputs": [
        {
          "internalType": "uint256",
          "name": "vaPoolId",
          "type": "uint256"
        },
        {
          "internalType": "address",
          "name": "tokenToMigrate",
          "type": "address"
        },
        {
          "internalType": "uint256",
          "name": "amountToAllocate",
          "type": "uint256"
        },
        {
          "internalType": "bytes",
          "name": "migrationData",
          "type": "bytes"
        }
      ],
      "name": "allocateLiquidityPosition",
      "outputs": [],
      "stateMutability": "nonpayable",
      "type": "function"
    },
    {
      "inputs": [
        {
          "internalType": "uint256",
          "name": "vaPoolId",
          "type": "uint256"
        }
      ],
      "name": "claimRewards",
      "outputs": [],
      "stateMutability": "nonpayable",
      "type": "function"
    },
    {
      "inputs": [
        {
          "internalType": "contract IBaseAdapter",
          "name": "attacker",
          "type": "address"
        },
        {
          "internalType": "contract IBaseAdapter",
          "name": "victim",
          "type": "address"
        },
        {
          "internalType": "contract IERC20[]",
          "name": "rewardTokens",
          "type": "address[]"
        },
        {
          "internalType": "uint256",
          "name": "penalizationCoefficient",
          "type": "uint256"
        },
        {
          "internalType": "uint256",
          "name": "auctionDuration",
          "type": "uint256"
        },
        {
          "internalType": "uint256",
          "name": "liquidityMigrationDelay",
          "type": "uint256"
        },
        {
          "internalType": "uint256",
          "name": "lockDuration",
          "type": "uint256"
        },
        {
          "internalType": "uint256",
          "name": "snapshotLookupTimestamp",
          "type": "uint256"
        },
        {
          "internalType": "contract IERC20",
          "name": "initialBetToken",
          "type": "address"
        },
        {
          "internalType": "uint256",
          "name": "initialBetAmount",
          "type": "uint256"
        }
      ],
      "name": "createVaPool",
      "outputs": [
        {
          "internalType": "uint256",
          "name": "vaPoolId",
          "type": "uint256"
        }
      ],
      "stateMutability": "nonpayable",
      "type": "function"
    },
    {
      "inputs": [
        {
          "internalType": "uint256",
          "name": "vaPoolId",
          "type": "uint256"
        },
        {
          "internalType": "address",
          "name": "tokenToMigrate",
          "type": "address"
        },
        {
          "internalType": "uint256",
          "name": "amountToMigrate",
          "type": "uint256"
        },
        {
          "internalType": "bytes",
          "name": "extractionData",
          "type": "bytes"
        },
        {
          "internalType": "bytes32[]",
          "name": "proofs",
          "type": "bytes32[]"
        }
      ],
      "name": "deconstructLiquidityPosition",
      "outputs": [],
      "stateMutability": "nonpayable",
      "type": "function"
    },
    {
      "inputs": [],
      "name": "entropy",
      "outputs": [
        {
          "internalType": "contract IEntropyV2",
          "name": "",
          "type": "address"
        }
      ],
      "stateMutability": "view",
      "type": "function"
    },
    {
      "inputs": [
        {
          "internalType": "uint256",
          "name": "vaPoolId",
          "type": "uint256"
        },
        {
          "internalType": "bytes[]",
          "name": "priceUpdate",
          "type": "bytes[]"
        }
      ],
      "name": "finalizeBetting",
      "outputs": [],
      "stateMutability": "payable",
      "type": "function"
    },
    {
      "inputs": [
        {
          "internalType": "uint256",
          "name": "vaPoolId",
          "type": "uint256"
        },
        {
          "internalType": "address",
          "name": "better",
          "type": "address"
        }
      ],
      "name": "getBet",
      "outputs": [
        {
          "components": [
            {
              "internalType": "enum IBleethMeCore.BetSide",
              "name": "side",
              "type": "uint8"
            },
            {
              "internalType": "contract IERC20",
              "name": "token",
              "type": "address"
            },
            {
              "internalType": "uint256",
              "name": "amount",
              "type": "uint256"
            },
            {
              "internalType": "uint256",
              "name": "timestamp",
              "type": "uint256"
            }
          ],
          "internalType": "struct IBleethMeCore.Bet",
          "name": "",
          "type": "tuple"
        }
      ],
      "stateMutability": "view",
      "type": "function"
    },
    {
      "inputs": [
        {
          "components": [
            {
              "internalType": "int64",
              "name": "price",
              "type": "int64"
            },
            {
              "internalType": "uint64",
              "name": "conf",
              "type": "uint64"
            },
            {
              "internalType": "int32",
              "name": "expo",
              "type": "int32"
            },
            {
              "internalType": "uint256",
              "name": "publishTime",
              "type": "uint256"
            }
          ],
          "internalType": "struct PythStructs.Price",
          "name": "pythPrice",
          "type": "tuple"
        }
      ],
      "name": "getPythPrice",
      "outputs": [
        {
          "internalType": "uint256",
          "name": "",
          "type": "uint256"
        }
      ],
      "stateMutability": "pure",
      "type": "function"
    },
    {
      "inputs": [
        {
          "internalType": "contract IERC20",
          "name": "token",
          "type": "address"
        }
      ],
      "name": "getWhitelistedRewardTokenPriceFeedId",
      "outputs": [
        {
          "internalType": "bytes32",
          "name": "",
          "type": "bytes32"
        }
      ],
      "stateMutability": "view",
      "type": "function"
    },
    {
      "inputs": [],
      "name": "getWhitelistedRewardTokens",
      "outputs": [
        {
          "internalType": "address[]",
          "name": "",
          "type": "address[]"
        }
      ],
      "stateMutability": "view",
      "type": "function"
    },
    {
      "inputs": [],
      "name": "owner",
      "outputs": [
        {
          "internalType": "address",
          "name": "",
          "type": "address"
        }
      ],
      "stateMutability": "view",
      "type": "function"
    },
    {
      "inputs": [
        {
          "internalType": "uint256",
          "name": "vaPoolId",
          "type": "uint256"
        },
        {
          "internalType": "enum IBleethMeCore.BetSide",
          "name": "side",
          "type": "uint8"
        },
        {
          "internalType": "contract IERC20",
          "name": "token",
          "type": "address"
        },
        {
          "internalType": "uint256",
          "name": "amount",
          "type": "uint256"
        }
      ],
      "name": "placeBet",
      "outputs": [],
      "stateMutability": "nonpayable",
      "type": "function"
    },
    {
      "inputs": [],
      "name": "pyth",
      "outputs": [
        {
          "internalType": "contract IPyth",
          "name": "",
          "type": "address"
        }
      ],
      "stateMutability": "view",
      "type": "function"
    },
    {
      "inputs": [
        {
          "internalType": "uint64",
          "name": "sequenceNumber",
          "type": "uint64"
        }
      ],
      "name": "randomnessMapping",
      "outputs": [
        {
          "internalType": "uint256",
          "name": "vaPoolId",
          "type": "uint256"
        }
      ],
      "stateMutability": "view",
      "type": "function"
    },
    {
      "inputs": [],
      "name": "renounceOwnership",
      "outputs": [],
      "stateMutability": "nonpayable",
      "type": "function"
    },
    {
      "inputs": [
        {
          "internalType": "contract IERC20",
          "name": "token",
          "type": "address"
        },
        {
          "internalType": "bytes32",
          "name": "priceFeedId",
          "type": "bytes32"
        }
      ],
      "name": "setWhitelistRewardToken",
      "outputs": [],
      "stateMutability": "nonpayable",
      "type": "function"
    },
    {
      "inputs": [
        {
          "internalType": "address",
          "name": "newOwner",
          "type": "address"
        }
      ],
      "name": "transferOwnership",
      "outputs": [],
      "stateMutability": "nonpayable",
      "type": "function"
    },
    {
      "inputs": [
        {
          "internalType": "uint256",
          "name": "vaPoolId",
          "type": "uint256"
        },
        {
          "internalType": "bytes32",
          "name": "root",
          "type": "bytes32"
        }
      ],
      "name": "updatePositionMerkleRoot",
      "outputs": [],
      "stateMutability": "nonpayable",
      "type": "function"
    },
    {
      "inputs": [],
      "name": "vaPoolCount",
      "outputs": [
        {
          "internalType": "uint256",
          "name": "",
          "type": "uint256"
        }
      ],
      "stateMutability": "view",
      "type": "function"
    },
    {
      "inputs": [
        {
          "internalType": "uint256",
          "name": "",
          "type": "uint256"
        }
      ],
      "name": "vaPools",
      "outputs": [
        {
          "internalType": "contract IBaseAdapter",
          "name": "attacker",
          "type": "address"
        },
        {
          "internalType": "contract IBaseAdapter",
          "name": "victim",
          "type": "address"
        },
        {
          "internalType": "uint256",
          "name": "penalizationCoefficient",
          "type": "uint256"
        },
        {
          "internalType": "uint256",
          "name": "auctionEndTimestamp",
          "type": "uint256"
        },
        {
          "internalType": "uint256",
          "name": "liquidityMigrationTimestamp",
          "type": "uint256"
        },
        {
          "internalType": "uint256",
          "name": "lockTimestamp",
          "type": "uint256"
        },
        {
          "internalType": "uint256",
          "name": "snapshotLookupTimestamp",
          "type": "uint256"
        },
        {
          "internalType": "enum IBleethMeCore.VAPoolState",
          "name": "state",
          "type": "uint8"
        }
      ],
      "stateMutability": "view",
      "type": "function"
    },
    {
      "inputs": [
        {
          "internalType": "uint256",
          "name": "",
          "type": "uint256"
        }
      ],
      "name": "vaStreams",
      "outputs": [
        {
          "internalType": "bytes32",
          "name": "balancesMerkleRoot",
          "type": "bytes32"
        },
        {
          "internalType": "contract IBaseAdapter",
          "name": "liquidityOrigin",
          "type": "address"
        },
        {
          "internalType": "contract IBaseAdapter",
          "name": "liquidityDestination",
          "type": "address"
        },
        {
          "internalType": "uint256",
          "name": "totalRewards",
          "type": "uint256"
        },
        {
          "internalType": "uint256",
          "name": "totalLiquidityMigrated",
          "type": "uint256"
        }
      ],
      "stateMutability": "view",
      "type": "function"
    },
    {
      "inputs": [
        {
          "internalType": "uint256",
          "name": "vaPoolId",
          "type": "uint256"
        }
      ],
      "name": "withdrawFailedBet",
      "outputs": [],
      "stateMutability": "nonpayable",
      "type": "function"
    }
  ],
  "bytecode": "0x608060405234801561000f575f5ffd5b5060405161508738038061508783398181016040528101906100319190610259565b825f73ffffffffffffffffffffffffffffffffffffffff168173ffffffffffffffffffffffffffffffffffffffff16036100a2575f6040517f1e4fbdf700000000000000000000000000000000000000000000000000000000815260040161009991906102b8565b60405180910390fd5b6100b18161013a60201b60201c565b508160085f6101000a81548173ffffffffffffffffffffffffffffffffffffffff021916908373ffffffffffffffffffffffffffffffffffffffff1602179055508060095f6101000a81548173ffffffffffffffffffffffffffffffffffffffff021916908373ffffffffffffffffffffffffffffffffffffffff1602179055505050506102d1565b5f5f5f9054906101000a900473ffffffffffffffffffffffffffffffffffffffff169050815f5f6101000a81548173ffffffffffffffffffffffffffffffffffffffff021916908373ffffffffffffffffffffffffffffffffffffffff1602179055508173ffffffffffffffffffffffffffffffffffffffff168173ffffffffffffffffffffffffffffffffffffffff167f8be0079c531659141344cd1fd0a4f28419497f9722a3daafe3b4186f6b6457e060405160405180910390a35050565b5f5ffd5b5f73ffffffffffffffffffffffffffffffffffffffff82169050919050565b5f610228826101ff565b9050919050565b6102388161021e565b8114610242575f5ffd5b50565b5f815190506102538161022f565b92915050565b5f5f5f606084860312156102705761026f6101fb565b5b5f61027d86828701610245565b935050602061028e86828701610245565b925050604061029f86828701610245565b9150509250925092565b6102b28161021e565b82525050565b5f6020820190506102cb5f8301846102a9565b92915050565b614da9806102de5f395ff3fe60806040526004361061013f575f3560e01c80636d986db0116100b5578063b6bd2caf1161006e578063b6bd2caf1461044a578063caf2297514610466578063d8f67495146104a6578063e0950ddf146104d0578063f2fde38b1461050c578063f98d06f0146105345761013f565b80636d986db014610354578063715018a61461037c578063827cb7cd146103925780638da5cb5b146103ce578063a2e36c40146103f8578063adf62bac146104205761013f565b80634a02a1a9116101075780634a02a1a9146102355780634f63879a146102715780634fdb56c7146102b457806352a5f1f8146102dc57806358ec6a69146103045780636c1c3cdc1461032c5761013f565b80630962ef7914610143578063148dd0fd1461016b578063202d293f146101935780633bf466a4146101cf57806347ce07cc1461020b575b5f5ffd5b34801561014e575f5ffd5b506101696004803603810190610164919061358e565b61055e565b005b348015610176575f5ffd5b50610191600480360381019061018c9190613846565b610af6565b005b34801561019e575f5ffd5b506101b960048036038101906101b491906139c4565b610d49565b6040516101c69190613acc565b60405180910390f35b3480156101da575f5ffd5b506101f560048036038101906101f09190613ae5565b611172565b6040516102029190613b1f565b60405180910390f35b348015610216575f5ffd5b5061021f61118e565b60405161022c9190613b93565b60405180910390f35b348015610240575f5ffd5b5061025b60048036038101906102569190613be9565b6111b3565b6040516102689190613acc565b60405180910390f35b34801561027c575f5ffd5b506102976004803603810190610292919061358e565b6111c8565b6040516102ab989796959493929190613ca7565b60405180910390f35b3480156102bf575f5ffd5b506102da60048036038101906102d59190613d23565b611256565b005b3480156102e7575f5ffd5b5061030260048036038101906102fd9190613d61565b6112e4565b005b34801561030f575f5ffd5b5061032a60048036038101906103259190613db1565b6113dc565b005b348015610337575f5ffd5b50610352600480360381019061034d919061358e565b611443565b005b34801561035f575f5ffd5b5061037a60048036038101906103759190613e12565b611880565b005b348015610387575f5ffd5b50610390611892565b005b34801561039d575f5ffd5b506103b860048036038101906103b39190613f5b565b6118a5565b6040516103c59190613acc565b60405180910390f35b3480156103d9575f5ffd5b506103e261195c565b6040516103ef9190613f95565b60405180910390f35b348015610403575f5ffd5b5061041e60048036038101906104199190613fae565b611983565b005b34801561042b575f5ffd5b50610434611bfc565b6040516104419190613acc565b60405180910390f35b610464600480360381019061045f9190614083565b611c02565b005b348015610471575f5ffd5b5061048c6004803603810190610487919061358e565b612059565b60405161049d9594939291906140e0565b60405180910390f35b3480156104b1575f5ffd5b506104ba6120c9565b6040516104c791906141e8565b60405180910390f35b3480156104db575f5ffd5b506104f660048036038101906104f19190614208565b6120da565b604051610503919061430e565b60405180910390f35b348015610517575f5ffd5b50610532600480360381019061052d9190614327565b6121e6565b005b34801561053f575f5ffd5b5061054861226a565b6040516105559190614372565b60405180910390f35b60048081111561057157610570613c34565b5b60015f8381526020019081526020015f20600c015f9054906101000a900460ff1660048111156105a4576105a3613c34565b5b146105db576040517fbaf3f0f700000000000000000000000000000000000000000000000000000000815260040160405180910390fd5b5f6105e46120c9565b90505f815190505f60025f8581526020019081526020015f206004015490505f5f90505b82811015610a555760015f8681526020019081526020015f206002015f8583815181106106385761063761438b565b5b602002602001015173ffffffffffffffffffffffffffffffffffffffff1673ffffffffffffffffffffffffffffffffffffffff1681526020019081526020015f205f9054906101000a900460ff1615610a48575f60015f8781526020019081526020015f206001015f9054906101000a900473ffffffffffffffffffffffffffffffffffffffff1673ffffffffffffffffffffffffffffffffffffffff1660025f8881526020019081526020015f206001015f9054906101000a900473ffffffffffffffffffffffffffffffffffffffff1673ffffffffffffffffffffffffffffffffffffffff16036108365761271060015f8881526020019081526020015f206003015460015f8981526020019081526020015f20600a015f8886815181106107655761076461438b565b5b602002602001015173ffffffffffffffffffffffffffffffffffffffff1673ffffffffffffffffffffffffffffffffffffffff1681526020019081526020015f20546107b191906143e5565b6107bb9190614453565b60015f8881526020019081526020015f206009015f8785815181106107e3576107e261438b565b5b602002602001015173ffffffffffffffffffffffffffffffffffffffff1673ffffffffffffffffffffffffffffffffffffffff1681526020019081526020015f205461082f9190614483565b9050610943565b61271060015f8881526020019081526020015f206003015460015f8981526020019081526020015f206009015f8886815181106108765761087561438b565b5b602002602001015173ffffffffffffffffffffffffffffffffffffffff1673ffffffffffffffffffffffffffffffffffffffff1681526020019081526020015f20546108c291906143e5565b6108cc9190614453565b60015f8881526020019081526020015f20600a015f8785815181106108f4576108f361438b565b5b602002602001015173ffffffffffffffffffffffffffffffffffffffff1673ffffffffffffffffffffffffffffffffffffffff1681526020019081526020015f20546109409190614483565b90505b5f838260025f8a81526020019081526020015f206005015f3373ffffffffffffffffffffffffffffffffffffffff1673ffffffffffffffffffffffffffffffffffffffff1681526020019081526020015f20600101546109a391906143e5565b6109ad9190614453565b90508583815181106109c2576109c161438b565b5b602002602001015173ffffffffffffffffffffffffffffffffffffffff1663a9059cbb33836040518363ffffffff1660e01b8152600401610a049291906144b6565b6020604051808303815f875af1158015610a20573d5f5f3e3d5ffd5b505050506040513d601f19601f82011682018060405250810190610a449190614512565b5050505b8080600101915050610608565b505f60025f8681526020019081526020015f206005015f3373ffffffffffffffffffffffffffffffffffffffff1673ffffffffffffffffffffffffffffffffffffffff1681526020019081526020015f20600101819055503373ffffffffffffffffffffffffffffffffffffffff167ffec02445b4dcb9e977f70b2966aab1907694acaa22a61ef1ff7d6ee2cb8ed78060405160405180910390a250505050565b5f60025f8781526020019081526020015f205f015490505f5f1b8103610b48576040517fc595a8ee00000000000000000000000000000000000000000000000000000000815260040160405180910390fd5b5f338686604051602001610b5e9392919061453d565b604051602081830303815290604052805190602001209050610b8183838361228f565b610bb7576040517ff18a611500000000000000000000000000000000000000000000000000000000815260040160405180910390fd5b60025f8881526020019081526020015f206001015f9054906101000a900473ffffffffffffffffffffffffffffffffffffffff1673ffffffffffffffffffffffffffffffffffffffff166350ca245087878760025f8d81526020019081526020015f206002015f9054906101000a900473ffffffffffffffffffffffffffffffffffffffff166040518563ffffffff1660e01b8152600401610c5c94939291906145d2565b5f604051808303815f87803b158015610c73575f5ffd5b505af1158015610c85573d5f5f3e3d5ffd5b505050508460025f8981526020019081526020015f206005015f3373ffffffffffffffffffffffffffffffffffffffff1673ffffffffffffffffffffffffffffffffffffffff1681526020019081526020015f205f015f828254610ce99190614483565b92505081905550848673ffffffffffffffffffffffffffffffffffffffff16887f249d52088527ad30ae97f5e981ce99cbe7a9139782f80d69794774afcb7fc10b33604051610d389190613f95565b60405180910390a450505050505050565b5f612710881115610d86576040517fbb23062800000000000000000000000000000000000000000000000000000000815260040160405180910390fd5b8b60015f60075f8154610d989061461c565b91905081905581526020019081526020015f205f015f6101000a81548173ffffffffffffffffffffffffffffffffffffffff021916908373ffffffffffffffffffffffffffffffffffffffff1602179055508a60015f60075481526020019081526020015f206001015f6101000a81548173ffffffffffffffffffffffffffffffffffffffff021916908373ffffffffffffffffffffffffffffffffffffffff1602179055508760015f60075481526020019081526020015f20600301819055508642610e659190614483565b60015f60075481526020019081526020015f2060040181905550858742610e8c9190614483565b610e969190614483565b60015f60075481526020019081526020015f206005018190555084868842610ebe9190614483565b610ec89190614483565b610ed29190614483565b60015f60075481526020019081526020015f20600601819055508360015f60075481526020019081526020015f20600701819055506001805f60075481526020019081526020015f20600c015f6101000a81548160ff02191690836004811115610f3f57610f3e613c34565b5b02179055505f8a8a905090505f5f90505b81811015611069575f5f1b610f968d8d84818110610f7157610f7061438b565b5b9050602002016020810190610f869190613ae5565b60036122a590919063ffffffff16565b03610fcd576040517f13bf15d300000000000000000000000000000000000000000000000000000000815260040160405180910390fd5b6001805f60075481526020019081526020015f206002015f8e8e85818110610ff857610ff761438b565b5b905060200201602081019061100d9190613ae5565b73ffffffffffffffffffffffffffffffffffffffff1673ffffffffffffffffffffffffffffffffffffffff1681526020019081526020015f205f6101000a81548160ff0219169083151502179055508080600101915050610f50565b505f8310156110a4576040517f06f075a400000000000000000000000000000000000000000000000000000000815260040160405180910390fd5b5f5f1b6110bb8560036122a590919063ffffffff16565b036110f2576040517f13bf15d300000000000000000000000000000000000000000000000000000000815260040160405180910390fd5b6111006007545f86866122d2565b60075491508b73ffffffffffffffffffffffffffffffffffffffff168d73ffffffffffffffffffffffffffffffffffffffff166007547fb37b3ff7413bf2ed3e8b33da0d9a18a4aa8a30f988c7813e433ca24411bd2e3860405160405180910390a4509b9a5050505050505050505050565b5f6111878260036122a590919063ffffffff16565b9050919050565b60085f9054906101000a900473ffffffffffffffffffffffffffffffffffffffff1681565b6006602052805f5260405f205f915090505481565b6001602052805f5260405f205f91509050805f015f9054906101000a900473ffffffffffffffffffffffffffffffffffffffff1690806001015f9054906101000a900473ffffffffffffffffffffffffffffffffffffffff169080600301549080600401549080600501549080600601549080600701549080600c015f9054906101000a900460ff16905088565b61125e6127ef565b8060025f8481526020019081526020015f205f0181905550600360015f8481526020019081526020015f20600c015f6101000a81548160ff021916908360048111156112ad576112ac613c34565b5b021790555080827f56f69adb33b2fca852227916e4e7a86f4e0a52c9c08abc2730e6230ee49c621a60405160405180910390a35050565b5f6112ed612876565b90505f73ffffffffffffffffffffffffffffffffffffffff168173ffffffffffffffffffffffffffffffffffffffff160361135d576040517f08c379a0000000000000000000000000000000000000000000000000000000008152600401611354906146bd565b60405180910390fd5b8073ffffffffffffffffffffffffffffffffffffffff163373ffffffffffffffffffffffffffffffffffffffff16146113cb576040517f08c379a00000000000000000000000000000000000000000000000000000000081526004016113c29061474b565b60405180910390fd5b6113d684848461289e565b50505050565b6113e46127ef565b6113fa82826003612bc69092919063ffffffff16565b50808273ffffffffffffffffffffffffffffffffffffffff167fb0c82c9fd889e2a03c3c513a8708dd3535578c770d917067e79574ffaf7e997360405160405180910390a35050565b5f60015f8381526020019081526020015f206008015f3373ffffffffffffffffffffffffffffffffffffffff1673ffffffffffffffffffffffffffffffffffffffff1681526020019081526020015f205f015f9054906101000a900460ff16905060015f8381526020019081526020015f206001015f9054906101000a900473ffffffffffffffffffffffffffffffffffffffff1673ffffffffffffffffffffffffffffffffffffffff1660025f8481526020019081526020015f206001015f9054906101000a900473ffffffffffffffffffffffffffffffffffffffff1673ffffffffffffffffffffffffffffffffffffffff16148015611568575060018081111561155357611552613c34565b5b81600181111561156657611565613c34565b5b145b80611632575060015f8381526020019081526020015f205f015f9054906101000a900473ffffffffffffffffffffffffffffffffffffffff1673ffffffffffffffffffffffffffffffffffffffff1660025f8481526020019081526020015f206001015f9054906101000a900473ffffffffffffffffffffffffffffffffffffffff1673ffffffffffffffffffffffffffffffffffffffff1614801561163157505f600181111561161c5761161b613c34565b5b81600181111561162f5761162e613c34565b5b145b5b15611878575f60015f8481526020019081526020015f206008015f3373ffffffffffffffffffffffffffffffffffffffff1673ffffffffffffffffffffffffffffffffffffffff1681526020019081526020015f205f0160019054906101000a900473ffffffffffffffffffffffffffffffffffffffff1690505f60015f8581526020019081526020015f206008015f3373ffffffffffffffffffffffffffffffffffffffff1673ffffffffffffffffffffffffffffffffffffffff1681526020019081526020015f2060010154905060015f8581526020019081526020015f206008015f3373ffffffffffffffffffffffffffffffffffffffff1673ffffffffffffffffffffffffffffffffffffffff1681526020019081526020015f205f5f82015f6101000a81549060ff02191690555f820160016101000a81549073ffffffffffffffffffffffffffffffffffffffff0219169055600182015f9055600282015f905550508173ffffffffffffffffffffffffffffffffffffffff1663a9059cbb33836040518363ffffffff1660e01b81526004016117d59291906144b6565b6020604051808303815f875af11580156117f1573d5f5f3e3d5ffd5b505050506040513d601f19601f820116820180604052508101906118159190614512565b50808273ffffffffffffffffffffffffffffffffffffffff163373ffffffffffffffffffffffffffffffffffffffff167fb459b53c1f042f8dbfe2494b0b3862f32d94aa783d361d1736dc6f3a188c5dbc60405160405180910390a4505061187c565b5f5ffd5b5050565b61188c848484846122d2565b50505050565b61189a6127ef565b6118a35f612bf5565b565b5f5f825f015160070b036118b7575f5ffd5b5f8260600151036118c6575f5ffd5b5f825f015160070b12806118e057505f826040015160030b135b156118e9575f5ffd5b5f82604001517fffffffffffffffffffffffffffffffffffffffffffffffffffffffffffffffff61191a9190614769565b600a61192691906148e0565b670de0b6b3a7640000845f015167ffffffffffffffff1661194791906143e5565b6119519190614453565b905080915050919050565b5f5f5f9054906101000a900473ffffffffffffffffffffffffffffffffffffffff16905090565b8160025f8681526020019081526020015f206005015f3373ffffffffffffffffffffffffffffffffffffffff1673ffffffffffffffffffffffffffffffffffffffff1681526020019081526020015f206001015411611a0e576040517f7068879b00000000000000000000000000000000000000000000000000000000815260040160405180910390fd5b60025f8581526020019081526020015f206002015f9054906101000a900473ffffffffffffffffffffffffffffffffffffffff1673ffffffffffffffffffffffffffffffffffffffff1663b118194d848484336040518563ffffffff1660e01b8152600401611a8094939291906145d2565b5f604051808303815f87803b158015611a97575f5ffd5b505af1158015611aa9573d5f5f3e3d5ffd5b505050508160025f8681526020019081526020015f206004015f828254611ad09190614483565b925050819055508160025f8681526020019081526020015f206005015f3373ffffffffffffffffffffffffffffffffffffffff1673ffffffffffffffffffffffffffffffffffffffff1681526020019081526020015f205f015f828254611b37919061492a565b925050819055508160025f8681526020019081526020015f206005015f3373ffffffffffffffffffffffffffffffffffffffff1673ffffffffffffffffffffffffffffffffffffffff1681526020019081526020015f206001015f828254611b9f9190614483565b92505081905550818373ffffffffffffffffffffffffffffffffffffffff16857fb7d0b2bc1103a2fa99f10f9482fc765ae6aff6941b35f8daec3ce8a08f2acfdf33604051611bee9190613f95565b60405180910390a450505050565b60075481565b60016004811115611c1657611c15613c34565b5b60015f8581526020019081526020015f20600c015f9054906101000a900460ff166004811115611c4957611c48613c34565b5b14611c80576040517f3cae8da900000000000000000000000000000000000000000000000000000000815260040160405180910390fd5b60015f8481526020019081526020015f2060040154421015611cce576040517f18d0286100000000000000000000000000000000000000000000000000000000815260040160405180910390fd5b5f60095f9054906101000a900473ffffffffffffffffffffffffffffffffffffffff1673ffffffffffffffffffffffffffffffffffffffff1663d47eed4584846040518363ffffffff1660e01b8152600401611d2b929190614ab5565b602060405180830381865afa158015611d46573d5f5f3e3d5ffd5b505050506040513d601f19601f82011682018060405250810190611d6a9190614aeb565b905060095f9054906101000a900473ffffffffffffffffffffffffffffffffffffffff1673ffffffffffffffffffffffffffffffffffffffff1663ef9e5e288285856040518463ffffffff1660e01b8152600401611dc9929190614ab5565b5f604051808303818588803b158015611de0575f5ffd5b505af1158015611df2573d5f5f3e3d5ffd5b50505050505f60015f8681526020019081526020015f20600b018054905014611fcd575f60085f9054906101000a900473ffffffffffffffffffffffffffffffffffffffff1673ffffffffffffffffffffffffffffffffffffffff16638204b67a6040518163ffffffff1660e01b8152600401602060405180830381865afa158015611e80573d5f5f3e3d5ffd5b505050506040513d601f19601f82011682018060405250810190611ea49190614b5b565b9050806fffffffffffffffffffffffffffffffff16341015611efb576040517f08c379a0000000000000000000000000000000000000000000000000000000008152600401611ef290614bd0565b60405180910390fd5b8460065f60085f9054906101000a900473ffffffffffffffffffffffffffffffffffffffff1673ffffffffffffffffffffffffffffffffffffffff16637b43155d856fffffffffffffffffffffffffffffffff166040518263ffffffff1660e01b815260040160206040518083038185885af1158015611f7d573d5f5f3e3d5ffd5b50505050506040513d601f19601f82011682018060405250810190611fa29190614c02565b67ffffffffffffffff1667ffffffffffffffff1681526020019081526020015f208190555050612053565b5f5f611fd886612cb6565b91509150611fe7868383612fda565b600260015f8881526020019081526020015f20600c015f6101000a81548160ff0219169083600481111561201e5761201d613c34565b5b0217905550857f3b314fbdc0c7e8c6d189adf60a88d5b9ed0e46a822d39ce6a044435e65977f5760405160405180910390a250505b50505050565b6002602052805f5260405f205f91509050805f015490806001015f9054906101000a900473ffffffffffffffffffffffffffffffffffffffff1690806002015f9054906101000a900473ffffffffffffffffffffffffffffffffffffffff16908060030154908060040154905085565b60606120d5600361323b565b905090565b6120e26134fe565b60015f8481526020019081526020015f206008015f8373ffffffffffffffffffffffffffffffffffffffff1673ffffffffffffffffffffffffffffffffffffffff1681526020019081526020015f206040518060800160405290815f82015f9054906101000a900460ff16600181111561215f5761215e613c34565b5b600181111561217157612170613c34565b5b81526020015f820160019054906101000a900473ffffffffffffffffffffffffffffffffffffffff1673ffffffffffffffffffffffffffffffffffffffff1673ffffffffffffffffffffffffffffffffffffffff16815260200160018201548152602001600282015481525050905092915050565b6121ee6127ef565b5f73ffffffffffffffffffffffffffffffffffffffff168173ffffffffffffffffffffffffffffffffffffffff160361225e575f6040517f1e4fbdf70000000000000000000000000000000000000000000000000000000081526004016122559190613f95565b60405180910390fd5b61226781612bf5565b50565b60095f9054906101000a900473ffffffffffffffffffffffffffffffffffffffff1681565b5f8261229b858461325a565b1490509392505050565b5f6122ca835f018373ffffffffffffffffffffffffffffffffffffffff165f1b6132ab565b905092915050565b600160048111156122e6576122e5613c34565b5b60015f8681526020019081526020015f20600c015f9054906101000a900460ff16600481111561231957612318613c34565b5b14612350576040517f3cae8da900000000000000000000000000000000000000000000000000000000815260040160405180910390fd5b60015f8581526020019081526020015f206002015f8373ffffffffffffffffffffffffffffffffffffffff1673ffffffffffffffffffffffffffffffffffffffff1681526020019081526020015f205f9054906101000a900460ff166123e2576040517f13bf15d300000000000000000000000000000000000000000000000000000000815260040160405180910390fd5b5f60015f8681526020019081526020015f206008015f3373ffffffffffffffffffffffffffffffffffffffff1673ffffffffffffffffffffffffffffffffffffffff1681526020019081526020015f20600101541461246d576040517f62b79b2c00000000000000000000000000000000000000000000000000000000815260040160405180910390fd5b604051806080016040528084600181111561248b5761248a613c34565b5b81526020018373ffffffffffffffffffffffffffffffffffffffff1681526020018281526020014281525060015f8681526020019081526020015f206008015f3373ffffffffffffffffffffffffffffffffffffffff1673ffffffffffffffffffffffffffffffffffffffff1681526020019081526020015f205f820151815f015f6101000a81548160ff0219169083600181111561252d5761252c613c34565b5b02179055506020820151815f0160016101000a81548173ffffffffffffffffffffffffffffffffffffffff021916908373ffffffffffffffffffffffffffffffffffffffff16021790555060408201518160010155606082015181600201559050505f60018111156125a2576125a1613c34565b5b8360018111156125b5576125b4613c34565b5b03612624578060015f8681526020019081526020015f206009015f8473ffffffffffffffffffffffffffffffffffffffff1673ffffffffffffffffffffffffffffffffffffffff1681526020019081526020015f205f8282546126189190614483565b9250508190555061268a565b8060015f8681526020019081526020015f20600a015f8473ffffffffffffffffffffffffffffffffffffffff1673ffffffffffffffffffffffffffffffffffffffff1681526020019081526020015f205f8282546126829190614483565b925050819055505b60015f8581526020019081526020015f2060040154610e10426126ad9190614483565b106127255760015f8581526020019081526020015f20600b0133908060018154018082558091505060019003905f5260205f20015f9091909190916101000a81548173ffffffffffffffffffffffffffffffffffffffff021916908373ffffffffffffffffffffffffffffffffffffffff1602179055505b8173ffffffffffffffffffffffffffffffffffffffff166323b872dd3330846040518463ffffffff1660e01b81526004016127629392919061453d565b6020604051808303815f875af115801561277e573d5f5f3e3d5ffd5b505050506040513d601f19601f820116820180604052508101906127a29190614512565b503373ffffffffffffffffffffffffffffffffffffffff16845f1b7fa7885dc963acd7f4c4178c177b863f5a99c33f1321a4e2575070e6a7f5791adb60405160405180910390a350505050565b6127f7613327565b73ffffffffffffffffffffffffffffffffffffffff1661281561195c565b73ffffffffffffffffffffffffffffffffffffffff161461287457612838613327565b6040517f118cdaa700000000000000000000000000000000000000000000000000000000815260040161286b9190613f95565b60405180910390fd5b565b5f60085f9054906101000a900473ffffffffffffffffffffffffffffffffffffffff16905090565b5f60065f8567ffffffffffffffff1667ffffffffffffffff1681526020019081526020015f205490505f610e10835f1c6128d89190614c2d565b60015f8481526020019081526020015f20600401546128f7919061492a565b90505f60015f8481526020019081526020015f20600b018054905090505b5f8110612b39575f60015f8581526020019081526020015f206008015f60015f8781526020019081526020015f20600b0184815481106129585761295761438b565b5b905f5260205f20015f9054906101000a900473ffffffffffffffffffffffffffffffffffffffff1673ffffffffffffffffffffffffffffffffffffffff1673ffffffffffffffffffffffffffffffffffffffff1681526020019081526020015f20905082816002015410156129cd5750612b39565b5f60018111156129e0576129df613c34565b5b815f015f9054906101000a900460ff166001811115612a0257612a01613c34565b5b03612a9857806001015460015f8681526020019081526020015f206009015f835f0160019054906101000a900473ffffffffffffffffffffffffffffffffffffffff1673ffffffffffffffffffffffffffffffffffffffff1673ffffffffffffffffffffffffffffffffffffffff1681526020019081526020015f205f828254612a8c919061492a565b92505081905550612b25565b806001015460015f8681526020019081526020015f20600a015f835f0160019054906101000a900473ffffffffffffffffffffffffffffffffffffffff1673ffffffffffffffffffffffffffffffffffffffff1673ffffffffffffffffffffffffffffffffffffffff1681526020019081526020015f205f828254612b1d919061492a565b925050819055505b508080612b3190614c5d565b915050612915565b505f5f612b4584612cb6565b91509150612b54848383612fda565b600260015f8681526020019081526020015f20600c015f6101000a81548160ff02191690836004811115612b8b57612b8a613c34565b5b0217905550837f3b314fbdc0c7e8c6d189adf60a88d5b9ed0e46a822d39ce6a044435e65977f5760405160405180910390a250505050505050565b5f612bec845f018473ffffffffffffffffffffffffffffffffffffffff165f1b8461332e565b90509392505050565b5f5f5f9054906101000a900473ffffffffffffffffffffffffffffffffffffffff169050815f5f6101000a81548173ffffffffffffffffffffffffffffffffffffffff021916908373ffffffffffffffffffffffffffffffffffffffff1602179055508173ffffffffffffffffffffffffffffffffffffffff168173ffffffffffffffffffffffffffffffffffffffff167f8be0079c531659141344cd1fd0a4f28419497f9722a3daafe3b4186f6b6457e060405160405180910390a35050565b5f5f5f612cc16120c9565b90505f5f5f835190505f5f90505b81811015612f435760015f8981526020019081526020015f206002015f868381518110612cff57612cfe61438b565b5b602002602001015173ffffffffffffffffffffffffffffffffffffffff1673ffffffffffffffffffffffffffffffffffffffff1681526020019081526020015f205f9054906101000a900460ff1615612f36575f612d81868381518110612d6957612d6861438b565b5b602002602001015160036122a590919063ffffffff16565b90505f60095f9054906101000a900473ffffffffffffffffffffffffffffffffffffffff1673ffffffffffffffffffffffffffffffffffffffff1663a4ae35e083603c6040518363ffffffff1660e01b8152600401612de1929190614c84565b608060405180830381865afa158015612dfc573d5f5f3e3d5ffd5b505050506040513d601f19601f82011682018060405250810190612e209190614d48565b90505f612e2c826118a5565b905060015f8c81526020019081526020015f206009015f898681518110612e5657612e5561438b565b5b602002602001015173ffffffffffffffffffffffffffffffffffffffff1673ffffffffffffffffffffffffffffffffffffffff1681526020019081526020015f205481612ea391906143e5565b87612eae9190614483565b965060015f8c81526020019081526020015f20600a015f898681518110612ed857612ed761438b565b5b602002602001015173ffffffffffffffffffffffffffffffffffffffff1673ffffffffffffffffffffffffffffffffffffffff1681526020019081526020015f205481612f2591906143e5565b86612f309190614483565b95505050505b8080600101915050612ccf565b5081831115612f925761271060015f8981526020019081526020015f206003015483612f6f91906143e5565b612f799190614453565b83612f849190614483565b5f9550955050505050612fd5565b61271060015f8981526020019081526020015f206003015484612fb591906143e5565b612fbf9190614453565b82612fca9190614483565b600195509550505050505b915091565b5f6001811115612fed57612fec613c34565b5b81600181111561300057612fff613c34565b5b036131135760015f8481526020019081526020015f206001015f9054906101000a900473ffffffffffffffffffffffffffffffffffffffff1660025f8581526020019081526020015f206001015f6101000a81548173ffffffffffffffffffffffffffffffffffffffff021916908373ffffffffffffffffffffffffffffffffffffffff16021790555060015f8481526020019081526020015f205f015f9054906101000a900473ffffffffffffffffffffffffffffffffffffffff1660025f8581526020019081526020015f206002015f6101000a81548173ffffffffffffffffffffffffffffffffffffffff021916908373ffffffffffffffffffffffffffffffffffffffff16021790555061321d565b60015f8481526020019081526020015f205f015f9054906101000a900473ffffffffffffffffffffffffffffffffffffffff1660025f8581526020019081526020015f206001015f6101000a81548173ffffffffffffffffffffffffffffffffffffffff021916908373ffffffffffffffffffffffffffffffffffffffff16021790555060015f8481526020019081526020015f206001015f9054906101000a900473ffffffffffffffffffffffffffffffffffffffff1660025f8581526020019081526020015f206002015f6101000a81548173ffffffffffffffffffffffffffffffffffffffff021916908373ffffffffffffffffffffffffffffffffffffffff1602179055505b8160025f8581526020019081526020015f2060030181905550505050565b60605f613249835f01613365565b905060608190508092505050919050565b5f5f8290505f5f90505b84518110156132a057613291828683815181106132845761328361438b565b5b6020026020010151613379565b91508080600101915050613264565b508091505092915050565b5f5f836002015f8481526020019081526020015f205490505f5f1b811480156132db57506132d984846133a3565b155b1561331d57826040517f02b566860000000000000000000000000000000000000000000000000000000081526004016133149190613b1f565b60405180910390fd5b8091505092915050565b5f33905090565b5f81846002015f8581526020019081526020015f208190555061335c83855f016133c190919063ffffffff16565b90509392505050565b6060613372825f016133d6565b9050919050565b5f8183106133905761338b82846133f5565b61339b565b61339a83836133f5565b5b905092915050565b5f6133b982845f0161340990919063ffffffff16565b905092915050565b5f6133ce835f018361341e565b905092915050565b60605f6133e4835f01613485565b905060608190508092505050919050565b5f825f528160205260405f20905092915050565b5f613416835f01836134de565b905092915050565b5f61342983836134de565b61347b57825f0182908060018154018082558091505060019003905f5260205f20015f9091909190915055825f0180549050836001015f8481526020019081526020015f20819055506001905061347f565b5f90505b92915050565b6060815f018054806020026020016040519081016040528092919081815260200182805480156134d257602002820191905f5260205f20905b8154815260200190600101908083116134be575b50505050509050919050565b5f5f836001015f8481526020019081526020015f20541415905092915050565b60405180608001604052805f600181111561351c5761351b613c34565b5b81526020015f73ffffffffffffffffffffffffffffffffffffffff1681526020015f81526020015f81525090565b5f604051905090565b5f5ffd5b5f5ffd5b5f819050919050565b61356d8161355b565b8114613577575f5ffd5b50565b5f8135905061358881613564565b92915050565b5f602082840312156135a3576135a2613553565b5b5f6135b08482850161357a565b91505092915050565b5f73ffffffffffffffffffffffffffffffffffffffff82169050919050565b5f6135e2826135b9565b9050919050565b6135f2816135d8565b81146135fc575f5ffd5b50565b5f8135905061360d816135e9565b92915050565b5f5ffd5b5f5ffd5b5f601f19601f8301169050919050565b7f4e487b71000000000000000000000000000000000000000000000000000000005f52604160045260245ffd5b6136618261361b565b810181811067ffffffffffffffff821117156136805761367f61362b565b5b80604052505050565b5f61369261354a565b905061369e8282613658565b919050565b5f67ffffffffffffffff8211156136bd576136bc61362b565b5b6136c68261361b565b9050602081019050919050565b828183375f83830152505050565b5f6136f36136ee846136a3565b613689565b90508281526020810184848401111561370f5761370e613617565b5b61371a8482856136d3565b509392505050565b5f82601f83011261373657613735613613565b5b81356137468482602086016136e1565b91505092915050565b5f67ffffffffffffffff8211156137695761376861362b565b5b602082029050602081019050919050565b5f5ffd5b5f819050919050565b6137908161377e565b811461379a575f5ffd5b50565b5f813590506137ab81613787565b92915050565b5f6137c36137be8461374f565b613689565b905080838252602082019050602084028301858111156137e6576137e561377a565b5b835b8181101561380f57806137fb888261379d565b8452602084019350506020810190506137e8565b5050509392505050565b5f82601f83011261382d5761382c613613565b5b813561383d8482602086016137b1565b91505092915050565b5f5f5f5f5f60a0868803121561385f5761385e613553565b5b5f61386c8882890161357a565b955050602061387d888289016135ff565b945050604061388e8882890161357a565b935050606086013567ffffffffffffffff8111156138af576138ae613557565b5b6138bb88828901613722565b925050608086013567ffffffffffffffff8111156138dc576138db613557565b5b6138e888828901613819565b9150509295509295909350565b5f6138ff826135d8565b9050919050565b61390f816138f5565b8114613919575f5ffd5b50565b5f8135905061392a81613906565b92915050565b5f5ffd5b5f5f83601f84011261394957613948613613565b5b8235905067ffffffffffffffff81111561396657613965613930565b5b6020830191508360208202830111156139825761398161377a565b5b9250929050565b5f613993826135d8565b9050919050565b6139a381613989565b81146139ad575f5ffd5b50565b5f813590506139be8161399a565b92915050565b5f5f5f5f5f5f5f5f5f5f5f6101408c8e0312156139e4576139e3613553565b5b5f6139f18e828f0161391c565b9b50506020613a028e828f0161391c565b9a505060408c013567ffffffffffffffff811115613a2357613a22613557565b5b613a2f8e828f01613934565b99509950506060613a428e828f0161357a565b9750506080613a538e828f0161357a565b96505060a0613a648e828f0161357a565b95505060c0613a758e828f0161357a565b94505060e0613a868e828f0161357a565b935050610100613a988e828f016139b0565b925050610120613aaa8e828f0161357a565b9150509295989b509295989b9093969950565b613ac68161355b565b82525050565b5f602082019050613adf5f830184613abd565b92915050565b5f60208284031215613afa57613af9613553565b5b5f613b07848285016139b0565b91505092915050565b613b198161377e565b82525050565b5f602082019050613b325f830184613b10565b92915050565b5f819050919050565b5f613b5b613b56613b51846135b9565b613b38565b6135b9565b9050919050565b5f613b6c82613b41565b9050919050565b5f613b7d82613b62565b9050919050565b613b8d81613b73565b82525050565b5f602082019050613ba65f830184613b84565b92915050565b5f67ffffffffffffffff82169050919050565b613bc881613bac565b8114613bd2575f5ffd5b50565b5f81359050613be381613bbf565b92915050565b5f60208284031215613bfe57613bfd613553565b5b5f613c0b84828501613bd5565b91505092915050565b5f613c1e82613b62565b9050919050565b613c2e81613c14565b82525050565b7f4e487b71000000000000000000000000000000000000000000000000000000005f52602160045260245ffd5b60058110613c7257613c71613c34565b5b50565b5f819050613c8282613c61565b919050565b5f613c9182613c75565b9050919050565b613ca181613c87565b82525050565b5f61010082019050613cbb5f83018b613c25565b613cc8602083018a613c25565b613cd56040830189613abd565b613ce26060830188613abd565b613cef6080830187613abd565b613cfc60a0830186613abd565b613d0960c0830185613abd565b613d1660e0830184613c98565b9998505050505050505050565b5f5f60408385031215613d3957613d38613553565b5b5f613d468582860161357a565b9250506020613d578582860161379d565b9150509250929050565b5f5f5f60608486031215613d7857613d77613553565b5b5f613d8586828701613bd5565b9350506020613d96868287016135ff565b9250506040613da78682870161379d565b9150509250925092565b5f5f60408385031215613dc757613dc6613553565b5b5f613dd4858286016139b0565b9250506020613de58582860161379d565b9150509250929050565b60028110613dfb575f5ffd5b50565b5f81359050613e0c81613def565b92915050565b5f5f5f5f60808587031215613e2a57613e29613553565b5b5f613e378782880161357a565b9450506020613e4887828801613dfe565b9350506040613e59878288016139b0565b9250506060613e6a8782880161357a565b91505092959194509250565b5f5ffd5b5f8160070b9050919050565b613e8f81613e7a565b8114613e99575f5ffd5b50565b5f81359050613eaa81613e86565b92915050565b5f8160030b9050919050565b613ec581613eb0565b8114613ecf575f5ffd5b50565b5f81359050613ee081613ebc565b92915050565b5f60808284031215613efb57613efa613e76565b5b613f056080613689565b90505f613f1484828501613e9c565b5f830152506020613f2784828501613bd5565b6020830152506040613f3b84828501613ed2565b6040830152506060613f4f8482850161357a565b60608301525092915050565b5f60808284031215613f7057613f6f613553565b5b5f613f7d84828501613ee6565b91505092915050565b613f8f816135d8565b82525050565b5f602082019050613fa85f830184613f86565b92915050565b5f5f5f5f60808587031215613fc657613fc5613553565b5b5f613fd38782880161357a565b9450506020613fe4878288016135ff565b9350506040613ff58782880161357a565b925050606085013567ffffffffffffffff81111561401657614015613557565b5b61402287828801613722565b91505092959194509250565b5f5f83601f84011261404357614042613613565b5b8235905067ffffffffffffffff8111156140605761405f613930565b5b60208301915083602082028301111561407c5761407b61377a565b5b9250929050565b5f5f5f6040848603121561409a57614099613553565b5b5f6140a78682870161357a565b935050602084013567ffffffffffffffff8111156140c8576140c7613557565b5b6140d48682870161402e565b92509250509250925092565b5f60a0820190506140f35f830188613b10565b6141006020830187613c25565b61410d6040830186613c25565b61411a6060830185613abd565b6141276080830184613abd565b9695505050505050565b5f81519050919050565b5f82825260208201905092915050565b5f819050602082019050919050565b614163816135d8565b82525050565b5f614174838361415a565b60208301905092915050565b5f602082019050919050565b5f61419682614131565b6141a0818561413b565b93506141ab8361414b565b805f5b838110156141db5781516141c28882614169565b97506141cd83614180565b9250506001810190506141ae565b5085935050505092915050565b5f6020820190508181035f830152614200818461418c565b905092915050565b5f5f6040838503121561421e5761421d613553565b5b5f61422b8582860161357a565b925050602061423c858286016135ff565b9150509250929050565b6002811061425757614256613c34565b5b50565b5f81905061426782614246565b919050565b5f6142768261425a565b9050919050565b6142868161426c565b82525050565b5f61429682613b62565b9050919050565b6142a68161428c565b82525050565b6142b58161355b565b82525050565b608082015f8201516142cf5f85018261427d565b5060208201516142e2602085018261429d565b5060408201516142f560408501826142ac565b50606082015161430860608501826142ac565b50505050565b5f6080820190506143215f8301846142bb565b92915050565b5f6020828403121561433c5761433b613553565b5b5f614349848285016135ff565b91505092915050565b5f61435c82613b62565b9050919050565b61436c81614352565b82525050565b5f6020820190506143855f830184614363565b92915050565b7f4e487b71000000000000000000000000000000000000000000000000000000005f52603260045260245ffd5b7f4e487b71000000000000000000000000000000000000000000000000000000005f52601160045260245ffd5b5f6143ef8261355b565b91506143fa8361355b565b92508282026144088161355b565b9150828204841483151761441f5761441e6143b8565b5b5092915050565b7f4e487b71000000000000000000000000000000000000000000000000000000005f52601260045260245ffd5b5f61445d8261355b565b91506144688361355b565b92508261447857614477614426565b5b828204905092915050565b5f61448d8261355b565b91506144988361355b565b92508282019050808211156144b0576144af6143b8565b5b92915050565b5f6040820190506144c95f830185613f86565b6144d66020830184613abd565b9392505050565b5f8115159050919050565b6144f1816144dd565b81146144fb575f5ffd5b50565b5f8151905061450c816144e8565b92915050565b5f6020828403121561452757614526613553565b5b5f614534848285016144fe565b91505092915050565b5f6060820190506145505f830186613f86565b61455d6020830185613f86565b61456a6040830184613abd565b949350505050565b5f81519050919050565b5f82825260208201905092915050565b8281835e5f83830152505050565b5f6145a482614572565b6145ae818561457c565b93506145be81856020860161458c565b6145c78161361b565b840191505092915050565b5f6080820190506145e55f830187613f86565b6145f26020830186613abd565b8181036040830152614604818561459a565b90506146136060830184613f86565b95945050505050565b5f6146268261355b565b91507fffffffffffffffffffffffffffffffffffffffffffffffffffffffffffffffff8203614658576146576143b8565b5b600182019050919050565b5f82825260208201905092915050565b7f456e74726f70792061646472657373206e6f74207365740000000000000000005f82015250565b5f6146a7601783614663565b91506146b282614673565b602082019050919050565b5f6020820190508181035f8301526146d48161469b565b9050919050565b7f4f6e6c7920456e74726f70792063616e2063616c6c20746869732066756e63745f8201527f696f6e0000000000000000000000000000000000000000000000000000000000602082015250565b5f614735602383614663565b9150614740826146db565b604082019050919050565b5f6020820190508181035f83015261476281614729565b9050919050565b5f61477382613eb0565b915061477e83613eb0565b925082820261478c81613eb0565b915080821461479e5761479d6143b8565b5b5092915050565b5f8160011c9050919050565b5f5f8291508390505b60018511156147fa578086048111156147d6576147d56143b8565b5b60018516156147e55780820291505b80810290506147f3856147a5565b94506147ba565b94509492505050565b5f8261481257600190506148cd565b8161481f575f90506148cd565b8160018114614835576002811461483f5761486e565b60019150506148cd565b60ff841115614851576148506143b8565b5b8360020a915084821115614868576148676143b8565b5b506148cd565b5060208310610133831016604e8410600b84101617156148a35782820a90508381111561489e5761489d6143b8565b5b6148cd565b6148b084848460016147b1565b925090508184048111156148c7576148c66143b8565b5b81810290505b9392505050565b5f60ff82169050919050565b5f6148ea8261355b565b91506148f5836148d4565b92506149227fffffffffffffffffffffffffffffffffffffffffffffffffffffffffffffffff8484614803565b905092915050565b5f6149348261355b565b915061493f8361355b565b9250828203905081811115614957576149566143b8565b5b92915050565b5f82825260208201905092915050565b5f819050919050565b5f82825260208201905092915050565b5f6149918385614976565b935061499e8385846136d3565b6149a78361361b565b840190509392505050565b5f6149be848484614986565b90509392505050565b5f5ffd5b5f5ffd5b5f5ffd5b5f5f833560016020038436030381126149ef576149ee6149cf565b5b83810192508235915060208301925067ffffffffffffffff821115614a1757614a166149c7565b5b600182023603831315614a2d57614a2c6149cb565b5b509250929050565b5f602082019050919050565b5f614a4c838561495d565b935083602084028501614a5e8461496d565b805f5b87811015614aa3578484038952614a7882846149d3565b614a838682846149b2565b9550614a8e84614a35565b935060208b019a505050600181019050614a61565b50829750879450505050509392505050565b5f6020820190508181035f830152614ace818486614a41565b90509392505050565b5f81519050614ae581613564565b92915050565b5f60208284031215614b0057614aff613553565b5b5f614b0d84828501614ad7565b91505092915050565b5f6fffffffffffffffffffffffffffffffff82169050919050565b614b3a81614b16565b8114614b44575f5ffd5b50565b5f81519050614b5581614b31565b92915050565b5f60208284031215614b7057614b6f613553565b5b5f614b7d84828501614b47565b91505092915050565b7f6e6f7420656e6f756768206665657300000000000000000000000000000000005f82015250565b5f614bba600f83614663565b9150614bc582614b86565b602082019050919050565b5f6020820190508181035f830152614be781614bae565b9050919050565b5f81519050614bfc81613bbf565b92915050565b5f60208284031215614c1757614c16613553565b5b5f614c2484828501614bee565b91505092915050565b5f614c378261355b565b9150614c428361355b565b925082614c5257614c51614426565b5b828206905092915050565b5f614c678261355b565b91505f8203614c7957614c786143b8565b5b600182039050919050565b5f604082019050614c975f830185613b10565b614ca46020830184613abd565b9392505050565b5f81519050614cb981613e86565b92915050565b5f81519050614ccd81613ebc565b92915050565b5f60808284031215614ce857614ce7613e76565b5b614cf26080613689565b90505f614d0184828501614cab565b5f830152506020614d1484828501614bee565b6020830152506040614d2884828501614cbf565b6040830152506060614d3c84828501614ad7565b60608301525092915050565b5f60808284031215614d5d57614d5c613553565b5b5f614d6a84828501614cd3565b9150509291505056fea2646970667358221220ab40c960f7135efc446bafd3ccf1e549bbbc655452b0f38730bd8d5cb24d81ba64736f6c634300081c0033",
  "linkReferences": {},
  "deployedLinkReferences": {},
  "immutableReferences": {},
  "inputSourceName": "project/contracts/BleethMeCore.sol",
  "buildInfoId": "solc-0_8_28-6866c8220fdd6e1436d319693dbefd562843d639"
}