{
  "_format": "hh3-artifact-1",
  "contractName": "BleethMeCore",
  "sourceName": "contracts/BleethMeCore.sol",
  "abi": [
    {
      "inputs": [
        {
          "internalType": "address",
          "name": "initialOwner",
          "type": "address"
        },
        {
          "internalType": "address",
          "name": "_entropy",
          "type": "address"
        },
        {
          "internalType": "address",
          "name": "_pyth",
          "type": "address"
        }
      ],
      "stateMutability": "nonpayable",
      "type": "constructor"
    },
    {
      "inputs": [],
      "name": "BetAlreadyPlaced",
      "type": "error"
    },
    {
      "inputs": [],
      "name": "BettingPeriodClosed",
      "type": "error"
    },
    {
      "inputs": [],
      "name": "BettingPeriodNotFinalized",
      "type": "error"
    },
    {
      "inputs": [
        {
          "internalType": "bytes32",
          "name": "key",
          "type": "bytes32"
        }
      ],
      "name": "EnumerableMapNonexistentKey",
      "type": "error"
    },
    {
      "inputs": [],
      "name": "InsufficientBetAmount",
      "type": "error"
    },
    {
      "inputs": [
        {
          "internalType": "address",
          "name": "owner",
          "type": "address"
        }
      ],
      "name": "OwnableInvalidOwner",
      "type": "error"
    },
    {
      "inputs": [
        {
          "internalType": "address",
          "name": "account",
          "type": "address"
        }
      ],
      "name": "OwnableUnauthorizedAccount",
      "type": "error"
    },
    {
      "inputs": [],
      "name": "RewardTokenNotWhitelisted",
      "type": "error"
    },
    {
      "anonymous": false,
      "inputs": [
        {
          "indexed": true,
          "internalType": "bytes32",
          "name": "poolId",
          "type": "bytes32"
        },
        {
          "indexed": true,
          "internalType": "address",
          "name": "user",
          "type": "address"
        }
      ],
      "name": "BetPlaced",
      "type": "event"
    },
    {
      "anonymous": false,
      "inputs": [
        {
          "indexed": true,
          "internalType": "address",
          "name": "previousOwner",
          "type": "address"
        },
        {
          "indexed": true,
          "internalType": "address",
          "name": "newOwner",
          "type": "address"
        }
      ],
      "name": "OwnershipTransferred",
      "type": "event"
    },
    {
      "anonymous": false,
      "inputs": [
        {
          "indexed": true,
          "internalType": "address",
          "name": "token",
          "type": "address"
        },
        {
          "indexed": true,
          "internalType": "bytes32",
          "name": "priceFeedId",
          "type": "bytes32"
        }
      ],
      "name": "RewardTokenWhitelisted",
      "type": "event"
    },
    {
      "anonymous": false,
      "inputs": [
        {
          "indexed": true,
          "internalType": "bytes32",
          "name": "poolId",
          "type": "bytes32"
        },
        {
          "indexed": true,
          "internalType": "address",
          "name": "attacker",
          "type": "address"
        },
        {
          "indexed": true,
          "internalType": "address",
          "name": "victim",
          "type": "address"
        }
      ],
      "name": "VAPoolCreated",
      "type": "event"
    },
    {
      "inputs": [
        {
          "internalType": "uint64",
          "name": "sequence",
          "type": "uint64"
        },
        {
          "internalType": "address",
          "name": "provider",
          "type": "address"
        },
        {
          "internalType": "bytes32",
          "name": "randomNumber",
          "type": "bytes32"
        }
      ],
      "name": "_entropyCallback",
      "outputs": [],
      "stateMutability": "nonpayable",
      "type": "function"
    },
    {
      "inputs": [
        {
          "internalType": "uint256",
          "name": "vaPoolId",
          "type": "uint256"
        },
        {
          "internalType": "address",
          "name": "tokenToMigrate",
          "type": "address"
        },
        {
          "internalType": "uint256",
          "name": "amountToAllocate",
          "type": "uint256"
        },
        {
          "internalType": "bytes",
          "name": "migrationData",
          "type": "bytes"
        }
      ],
      "name": "allocateLiquidityPosition",
      "outputs": [],
      "stateMutability": "nonpayable",
      "type": "function"
    },
    {
      "inputs": [
        {
          "internalType": "uint256",
          "name": "vaPoolId",
          "type": "uint256"
        }
      ],
      "name": "computeTotalBets",
      "outputs": [
        {
          "internalType": "uint256",
          "name": "totalFor",
          "type": "uint256"
        },
        {
          "internalType": "uint256",
          "name": "totalAgainst",
          "type": "uint256"
        }
      ],
      "stateMutability": "view",
      "type": "function"
    },
    {
      "inputs": [
        {
          "internalType": "contract IBaseAdapter",
          "name": "attacker",
          "type": "address"
        },
        {
          "internalType": "contract IBaseAdapter",
          "name": "victim",
          "type": "address"
        },
        {
          "internalType": "contract IERC20[]",
          "name": "rewardTokens",
          "type": "address[]"
        },
        {
          "internalType": "uint256",
          "name": "penalizationCoefficient",
          "type": "uint256"
        },
        {
          "internalType": "uint256",
          "name": "auctionDuration",
          "type": "uint256"
        },
        {
          "internalType": "uint256",
          "name": "liquidityMigrationDelay",
          "type": "uint256"
        },
        {
          "internalType": "uint256",
          "name": "lockDuration",
          "type": "uint256"
        },
        {
          "internalType": "uint256",
          "name": "snapshotLookupTimestamp",
          "type": "uint256"
        },
        {
          "internalType": "contract IERC20",
          "name": "initialBetToken",
          "type": "address"
        },
        {
          "internalType": "uint256",
          "name": "initialBetAmount",
          "type": "uint256"
        }
      ],
      "name": "createVaPool",
      "outputs": [
        {
          "internalType": "bytes32",
          "name": "poolId",
          "type": "bytes32"
        }
      ],
      "stateMutability": "nonpayable",
      "type": "function"
    },
    {
      "inputs": [
        {
          "internalType": "uint256",
          "name": "vaPoolId",
          "type": "uint256"
        },
        {
          "internalType": "address",
          "name": "tokenToMigrate",
          "type": "address"
        },
        {
          "internalType": "uint256",
          "name": "amountToMigrate",
          "type": "uint256"
        },
        {
          "internalType": "bytes",
          "name": "extractionData",
          "type": "bytes"
        }
      ],
      "name": "deconstructLiquidityPosition",
      "outputs": [],
      "stateMutability": "nonpayable",
      "type": "function"
    },
    {
      "inputs": [],
      "name": "entropy",
      "outputs": [
        {
          "internalType": "contract IEntropyV2",
          "name": "",
          "type": "address"
        }
      ],
      "stateMutability": "view",
      "type": "function"
    },
    {
      "inputs": [
        {
          "internalType": "uint256",
          "name": "vaPoolId",
          "type": "uint256"
        },
        {
          "internalType": "bytes[]",
          "name": "priceUpdate",
          "type": "bytes[]"
        }
      ],
      "name": "finalizeBetting",
      "outputs": [],
      "stateMutability": "payable",
      "type": "function"
    },
    {
      "inputs": [
        {
          "internalType": "uint256",
          "name": "vaPoolId",
          "type": "uint256"
        }
      ],
      "name": "finalizeBettingPeriod",
      "outputs": [],
      "stateMutability": "nonpayable",
      "type": "function"
    },
    {
      "inputs": [
        {
          "internalType": "uint256",
          "name": "vaPoolId",
          "type": "uint256"
        },
        {
          "internalType": "address",
          "name": "better",
          "type": "address"
        }
      ],
      "name": "getBet",
      "outputs": [
        {
          "components": [
            {
              "internalType": "enum IBleethMeCore.BetSide",
              "name": "side",
              "type": "uint8"
            },
            {
              "internalType": "contract IERC20",
              "name": "token",
              "type": "address"
            },
            {
              "internalType": "uint256",
              "name": "amount",
              "type": "uint256"
            },
            {
              "internalType": "uint256",
              "name": "timestamp",
              "type": "uint256"
            }
          ],
          "internalType": "struct IBleethMeCore.Bet",
          "name": "",
          "type": "tuple"
        }
      ],
      "stateMutability": "view",
      "type": "function"
    },
    {
      "inputs": [
        {
          "internalType": "int64",
          "name": "price",
          "type": "int64"
        },
        {
          "internalType": "int32",
          "name": "expo",
          "type": "int32"
        }
      ],
      "name": "getPythPrice1e18",
      "outputs": [
        {
          "internalType": "uint256",
          "name": "",
          "type": "uint256"
        }
      ],
      "stateMutability": "pure",
      "type": "function"
    },
    {
      "inputs": [
        {
          "internalType": "contract IERC20",
          "name": "token",
          "type": "address"
        }
      ],
      "name": "getWhitelistedRewardTokenPriceFeedId",
      "outputs": [
        {
          "internalType": "bytes32",
          "name": "",
          "type": "bytes32"
        }
      ],
      "stateMutability": "view",
      "type": "function"
    },
    {
      "inputs": [],
      "name": "getWhitelistedRewardTokens",
      "outputs": [
        {
          "internalType": "address[]",
          "name": "",
          "type": "address[]"
        }
      ],
      "stateMutability": "view",
      "type": "function"
    },
    {
      "inputs": [],
      "name": "owner",
      "outputs": [
        {
          "internalType": "address",
          "name": "",
          "type": "address"
        }
      ],
      "stateMutability": "view",
      "type": "function"
    },
    {
      "inputs": [
        {
          "internalType": "uint256",
          "name": "vaPoolId",
          "type": "uint256"
        },
        {
          "internalType": "enum IBleethMeCore.BetSide",
          "name": "side",
          "type": "uint8"
        },
        {
          "internalType": "contract IERC20",
          "name": "token",
          "type": "address"
        },
        {
          "internalType": "uint256",
          "name": "amount",
          "type": "uint256"
        }
      ],
      "name": "placeBet",
      "outputs": [],
      "stateMutability": "nonpayable",
      "type": "function"
    },
    {
      "inputs": [],
      "name": "pyth",
      "outputs": [
        {
          "internalType": "contract IPyth",
          "name": "",
          "type": "address"
        }
      ],
      "stateMutability": "view",
      "type": "function"
    },
    {
      "inputs": [
        {
          "internalType": "uint64",
          "name": "sequenceNumber",
          "type": "uint64"
        }
      ],
      "name": "randomnessMapping",
      "outputs": [
        {
          "internalType": "uint256",
          "name": "vaPoolId",
          "type": "uint256"
        }
      ],
      "stateMutability": "view",
      "type": "function"
    },
    {
      "inputs": [],
      "name": "renounceOwnership",
      "outputs": [],
      "stateMutability": "nonpayable",
      "type": "function"
    },
    {
      "inputs": [
        {
          "internalType": "contract IERC20",
          "name": "token",
          "type": "address"
        },
        {
          "internalType": "bytes32",
          "name": "priceFeedId",
          "type": "bytes32"
        }
      ],
      "name": "setWhitelistRewardToken",
      "outputs": [],
      "stateMutability": "nonpayable",
      "type": "function"
    },
    {
      "inputs": [
        {
          "internalType": "address",
          "name": "newOwner",
          "type": "address"
        }
      ],
      "name": "transferOwnership",
      "outputs": [],
      "stateMutability": "nonpayable",
      "type": "function"
    },
    {
      "inputs": [
        {
          "internalType": "uint256",
          "name": "vaPoolId",
          "type": "uint256"
        },
        {
          "internalType": "bytes32",
          "name": "root",
          "type": "bytes32"
        }
      ],
      "name": "updatePositionMerkleRoot",
      "outputs": [],
      "stateMutability": "nonpayable",
      "type": "function"
    },
    {
      "inputs": [],
      "name": "vaPoolCount",
      "outputs": [
        {
          "internalType": "uint256",
          "name": "",
          "type": "uint256"
        }
      ],
      "stateMutability": "view",
      "type": "function"
    },
    {
      "inputs": [
        {
          "internalType": "uint256",
          "name": "",
          "type": "uint256"
        }
      ],
      "name": "vaPools",
      "outputs": [
        {
          "internalType": "contract IBaseAdapter",
          "name": "attacker",
          "type": "address"
        },
        {
          "internalType": "contract IBaseAdapter",
          "name": "victim",
          "type": "address"
        },
        {
          "internalType": "uint256",
          "name": "penalizationCoefficient",
          "type": "uint256"
        },
        {
          "internalType": "uint256",
          "name": "auctionEndTimestamp",
          "type": "uint256"
        },
        {
          "internalType": "uint256",
          "name": "liquidityMigrationTimestamp",
          "type": "uint256"
        },
        {
          "internalType": "uint256",
          "name": "lockTimestamp",
          "type": "uint256"
        },
        {
          "internalType": "uint256",
          "name": "snapshotLookupTimestamp",
          "type": "uint256"
        },
        {
          "internalType": "enum IBleethMeCore.VAPoolState",
          "name": "state",
          "type": "uint8"
        }
      ],
      "stateMutability": "view",
      "type": "function"
    },
    {
      "inputs": [
        {
          "internalType": "uint256",
          "name": "",
          "type": "uint256"
        }
      ],
      "name": "vaStreams",
      "outputs": [
        {
          "internalType": "bytes32",
          "name": "balancesMerkleRoot",
          "type": "bytes32"
        },
        {
          "internalType": "contract IBaseAdapter",
          "name": "liquidityOrigin",
          "type": "address"
        },
        {
          "internalType": "contract IBaseAdapter",
          "name": "liquidityDestination",
          "type": "address"
        },
        {
          "internalType": "uint256",
          "name": "totalRewards",
          "type": "uint256"
        }
      ],
      "stateMutability": "view",
      "type": "function"
    },
    {
      "inputs": [
        {
          "internalType": "uint256",
          "name": "vaPoolId",
          "type": "uint256"
        }
      ],
      "name": "withdrawFailedBet",
      "outputs": [],
      "stateMutability": "nonpayable",
      "type": "function"
    }
  ],
  "bytecode": "0x608060405234801561000f575f5ffd5b5060405161484538038061484583398181016040528101906100319190610259565b825f73ffffffffffffffffffffffffffffffffffffffff168173ffffffffffffffffffffffffffffffffffffffff16036100a2575f6040517f1e4fbdf700000000000000000000000000000000000000000000000000000000815260040161009991906102b8565b60405180910390fd5b6100b18161013a60201b60201c565b508160085f6101000a81548173ffffffffffffffffffffffffffffffffffffffff021916908373ffffffffffffffffffffffffffffffffffffffff1602179055508060095f6101000a81548173ffffffffffffffffffffffffffffffffffffffff021916908373ffffffffffffffffffffffffffffffffffffffff1602179055505050506102d1565b5f5f5f9054906101000a900473ffffffffffffffffffffffffffffffffffffffff169050815f5f6101000a81548173ffffffffffffffffffffffffffffffffffffffff021916908373ffffffffffffffffffffffffffffffffffffffff1602179055508173ffffffffffffffffffffffffffffffffffffffff168173ffffffffffffffffffffffffffffffffffffffff167f8be0079c531659141344cd1fd0a4f28419497f9722a3daafe3b4186f6b6457e060405160405180910390a35050565b5f5ffd5b5f73ffffffffffffffffffffffffffffffffffffffff82169050919050565b5f610228826101ff565b9050919050565b6102388161021e565b8114610242575f5ffd5b50565b5f815190506102538161022f565b92915050565b5f5f5f606084860312156102705761026f6101fb565b5b5f61027d86828701610245565b935050602061028e86828701610245565b925050604061029f86828701610245565b9150509250925092565b6102b28161021e565b82525050565b5f6020820190506102cb5f8301846102a9565b92915050565b614567806102de5f395ff3fe60806040526004361061014a575f3560e01c80638da5cb5b116100b5578063d8f674951161006e578063d8f6749514610488578063e0950ddf146104b2578063eba0f218146104ee578063f2fde38b1461052b578063f98d06f014610553578063faeb655c1461057d5761014a565b80638da5cb5b1461037557806392a71fdc1461039f578063a2e36c40146103db578063adf62bac14610403578063b6bd2caf1461042d578063caf22975146104495761014a565b80634fdb56c7116101075780634fdb56c71461029757806352a5f1f8146102bf57806358ec6a69146102e75780636c1c3cdc1461030f5780636d986db014610337578063715018a61461035f5761014a565b8063202d293f1461014e5780632bc6071a1461018a5780633bf466a4146101b257806347ce07cc146101ee5780634a02a1a9146102185780634f63879a14610254575b5f5ffd5b348015610159575f5ffd5b50610174600480360381019061016f9190612ebe565b6105a5565b6040516101819190612fcf565b60405180910390f35b348015610195575f5ffd5b506101b060048036038101906101ab9190612fe8565b6109d4565b005b3480156101bd575f5ffd5b506101d860048036038101906101d39190613013565b610a99565b6040516101e59190612fcf565b60405180910390f35b3480156101f9575f5ffd5b50610202610ab5565b60405161020f9190613099565b60405180910390f35b348015610223575f5ffd5b5061023e600480360381019061023991906130ef565b610ada565b60405161024b9190613129565b60405180910390f35b34801561025f575f5ffd5b5061027a60048036038101906102759190612fe8565b610aef565b60405161028e9897969594939291906131d5565b60405180910390f35b3480156102a2575f5ffd5b506102bd60048036038101906102b8919061327b565b610b7d565b005b3480156102ca575f5ffd5b506102e560048036038101906102e091906132e3565b610bdd565b005b3480156102f2575f5ffd5b5061030d60048036038101906103089190613333565b610cd5565b005b34801561031a575f5ffd5b5061033560048036038101906103309190612fe8565b610d3c565b005b348015610342575f5ffd5b5061035d60048036038101906103589190613394565b611114565b005b34801561036a575f5ffd5b50610373611126565b005b348015610380575f5ffd5b50610389611139565b6040516103969190613407565b60405180910390f35b3480156103aa575f5ffd5b506103c560048036038101906103c0919061348c565b611160565b6040516103d29190613129565b60405180910390f35b3480156103e6575f5ffd5b5061040160048036038101906103fc9190613602565b611213565b005b34801561040e575f5ffd5b5061041761139b565b6040516104249190613129565b60405180910390f35b610447600480360381019061044291906136d7565b6113a1565b005b348015610454575f5ffd5b5061046f600480360381019061046a9190612fe8565b6117d4565b60405161047f9493929190613734565b60405180910390f35b348015610493575f5ffd5b5061049c61183e565b6040516104a9919061382e565b60405180910390f35b3480156104bd575f5ffd5b506104d860048036038101906104d3919061384e565b61184f565b6040516104e59190613954565b60405180910390f35b3480156104f9575f5ffd5b50610514600480360381019061050f9190612fe8565b61195b565b60405161052292919061396d565b60405180910390f35b348015610536575f5ffd5b50610551600480360381019061054c9190613994565b611962565b005b34801561055e575f5ffd5b506105676119e6565b60405161057491906139df565b60405180910390f35b348015610588575f5ffd5b506105a3600480360381019061059e9190613602565b611a0b565b005b5f6127108811156105eb576040517f08c379a00000000000000000000000000000000000000000000000000000000081526004016105e290613a52565b60405180910390fd5b8b60015f60075f81546105fd90613a9d565b91905081905581526020019081526020015f205f015f6101000a81548173ffffffffffffffffffffffffffffffffffffffff021916908373ffffffffffffffffffffffffffffffffffffffff1602179055508a60015f60075481526020019081526020015f206001015f6101000a81548173ffffffffffffffffffffffffffffffffffffffff021916908373ffffffffffffffffffffffffffffffffffffffff1602179055508760015f60075481526020019081526020015f206003018190555086426106ca9190613ae4565b60015f60075481526020019081526020015f20600401819055508587426106f19190613ae4565b6106fb9190613ae4565b60015f60075481526020019081526020015f2060050181905550848688426107239190613ae4565b61072d9190613ae4565b6107379190613ae4565b60015f60075481526020019081526020015f20600601819055508360015f60075481526020019081526020015f20600701819055506001805f60075481526020019081526020015f20600c015f6101000a81548160ff021916908360048111156107a4576107a3613162565b5b02179055505f8a8a905090505f5f90505b818110156108ce575f5f1b6107fb8d8d848181106107d6576107d5613b17565b5b90506020020160208101906107eb9190613013565b6003611b7990919063ffffffff16565b03610832576040517f13bf15d300000000000000000000000000000000000000000000000000000000815260040160405180910390fd5b6001805f60075481526020019081526020015f206002015f8e8e8581811061085d5761085c613b17565b5b90506020020160208101906108729190613013565b73ffffffffffffffffffffffffffffffffffffffff1673ffffffffffffffffffffffffffffffffffffffff1681526020019081526020015f205f6101000a81548160ff02191690831515021790555080806001019150506107b5565b505f831015610909576040517f06f075a400000000000000000000000000000000000000000000000000000000815260040160405180910390fd5b5f5f1b610920856003611b7990919063ffffffff16565b03610957576040517f13bf15d300000000000000000000000000000000000000000000000000000000815260040160405180910390fd5b6109656007545f8686611ba6565b8b73ffffffffffffffffffffffffffffffffffffffff168d73ffffffffffffffffffffffffffffffffffffffff166007545f1b7ff74d89d0a53b6902cca5170f8dfd91e41f0ebdbb768b2749d3b17a1ed1372f0260405160405180910390a4509b9a5050505050505050505050565b6109dc6120c3565b600160048111156109f0576109ef613162565b5b60015f8381526020019081526020015f20600c015f9054906101000a900460ff166004811115610a2357610a22613162565b5b14610a5a576040517f3cae8da900000000000000000000000000000000000000000000000000000000815260040160405180910390fd5b600260015f8381526020019081526020015f20600c015f6101000a81548160ff02191690836004811115610a9157610a90613162565b5b021790555050565b5f610aae826003611b7990919063ffffffff16565b9050919050565b60085f9054906101000a900473ffffffffffffffffffffffffffffffffffffffff1681565b6006602052805f5260405f205f915090505481565b6001602052805f5260405f205f91509050805f015f9054906101000a900473ffffffffffffffffffffffffffffffffffffffff1690806001015f9054906101000a900473ffffffffffffffffffffffffffffffffffffffff169080600301549080600401549080600501549080600601549080600701549080600c015f9054906101000a900460ff16905088565b610b856120c3565b8060025f8481526020019081526020015f205f0181905550600360015f8481526020019081526020015f20600c015f6101000a81548160ff02191690836004811115610bd457610bd3613162565b5b02179055505050565b5f610be661214a565b90505f73ffffffffffffffffffffffffffffffffffffffff168173ffffffffffffffffffffffffffffffffffffffff1603610c56576040517f08c379a0000000000000000000000000000000000000000000000000000000008152600401610c4d90613b8e565b60405180910390fd5b8073ffffffffffffffffffffffffffffffffffffffff163373ffffffffffffffffffffffffffffffffffffffff1614610cc4576040517f08c379a0000000000000000000000000000000000000000000000000000000008152600401610cbb90613c1c565b60405180910390fd5b610ccf848484612172565b50505050565b610cdd6120c3565b610cf3828260036124769092919063ffffffff16565b50808273ffffffffffffffffffffffffffffffffffffffff167fb0c82c9fd889e2a03c3c513a8708dd3535578c770d917067e79574ffaf7e997360405160405180910390a35050565b5f60015f8381526020019081526020015f206008015f3373ffffffffffffffffffffffffffffffffffffffff1673ffffffffffffffffffffffffffffffffffffffff1681526020019081526020015f205f015f9054906101000a900460ff16905060015f8381526020019081526020015f206001015f9054906101000a900473ffffffffffffffffffffffffffffffffffffffff1673ffffffffffffffffffffffffffffffffffffffff1660025f8481526020019081526020015f206001015f9054906101000a900473ffffffffffffffffffffffffffffffffffffffff1673ffffffffffffffffffffffffffffffffffffffff16148015610e615750600180811115610e4c57610e4b613162565b5b816001811115610e5f57610e5e613162565b5b145b80610f2b575060015f8381526020019081526020015f205f015f9054906101000a900473ffffffffffffffffffffffffffffffffffffffff1673ffffffffffffffffffffffffffffffffffffffff1660025f8481526020019081526020015f206001015f9054906101000a900473ffffffffffffffffffffffffffffffffffffffff1673ffffffffffffffffffffffffffffffffffffffff16148015610f2a57505f6001811115610f1557610f14613162565b5b816001811115610f2857610f27613162565b5b145b5b1561110c5760015f8381526020019081526020015f206008015f3373ffffffffffffffffffffffffffffffffffffffff1673ffffffffffffffffffffffffffffffffffffffff1681526020019081526020015f205f0160019054906101000a900473ffffffffffffffffffffffffffffffffffffffff1673ffffffffffffffffffffffffffffffffffffffff1663a9059cbb3360015f8681526020019081526020015f206008015f3373ffffffffffffffffffffffffffffffffffffffff1673ffffffffffffffffffffffffffffffffffffffff1681526020019081526020015f20600101546040518363ffffffff1660e01b815260040161102e929190613c3a565b6020604051808303815f875af115801561104a573d5f5f3e3d5ffd5b505050506040513d601f19601f8201168201806040525081019061106e9190613c96565b5060015f8381526020019081526020015f206008015f3373ffffffffffffffffffffffffffffffffffffffff1673ffffffffffffffffffffffffffffffffffffffff1681526020019081526020015f205f5f82015f6101000a81549060ff02191690555f820160016101000a81549073ffffffffffffffffffffffffffffffffffffffff0219169055600182015f9055600282015f90555050611110565b5f5ffd5b5050565b61112084848484611ba6565b50505050565b61112e6120c3565b6111375f6124a5565b565b5f5f5f9054906101000a900473ffffffffffffffffffffffffffffffffffffffff16905090565b5f7fffffffffffffffffffffffffffffffffffffffffffffffffffffffffffffffee8260030b12156111de575f827fffffffffffffffffffffffffffffffffffffffffffffffffffffffffffffffee6111b99190613cc1565b600a6111c59190613e5a565b9050808460070b6111d69190613ed1565b91505061120d565b5f8260126111ec9190613f01565b600a6111f89190613e5a565b9050808460070b6112099190613f5c565b9150505b92915050565b8160025f8681526020019081526020015f206004015f8681526020019081526020015f205f3373ffffffffffffffffffffffffffffffffffffffff1673ffffffffffffffffffffffffffffffffffffffff1681526020019081526020015f20600101541161127f575f5ffd5b60025f8581526020019081526020015f206002015f9054906101000a900473ffffffffffffffffffffffffffffffffffffffff1673ffffffffffffffffffffffffffffffffffffffff1663b118194d848484336040518563ffffffff1660e01b81526004016112f19493929190613ffd565b5f604051808303815f87803b158015611308575f5ffd5b505af115801561131a573d5f5f3e3d5ffd5b505050508160025f8681526020019081526020015f206004015f8681526020019081526020015f205f3373ffffffffffffffffffffffffffffffffffffffff1673ffffffffffffffffffffffffffffffffffffffff1681526020019081526020015f206001015f82825461138e9190613ae4565b9250508190555050505050565b60075481565b600160048111156113b5576113b4613162565b5b60015f8581526020019081526020015f20600c015f9054906101000a900460ff1660048111156113e8576113e7613162565b5b1461141f576040517f3cae8da900000000000000000000000000000000000000000000000000000000815260040160405180910390fd5b60015f8481526020019081526020015f2060040154421015611476576040517f08c379a000000000000000000000000000000000000000000000000000000000815260040161146d90614091565b60405180910390fd5b5f60095f9054906101000a900473ffffffffffffffffffffffffffffffffffffffff1673ffffffffffffffffffffffffffffffffffffffff1663d47eed4584846040518363ffffffff1660e01b81526004016114d3929190614207565b602060405180830381865afa1580156114ee573d5f5f3e3d5ffd5b505050506040513d601f19601f82011682018060405250810190611512919061423d565b905060095f9054906101000a900473ffffffffffffffffffffffffffffffffffffffff1673ffffffffffffffffffffffffffffffffffffffff1663ef9e5e288285856040518463ffffffff1660e01b8152600401611571929190614207565b5f604051808303818588803b158015611588575f5ffd5b505af115801561159a573d5f5f3e3d5ffd5b50505050505f60015f8681526020019081526020015f20600b018054905014611775575f60085f9054906101000a900473ffffffffffffffffffffffffffffffffffffffff1673ffffffffffffffffffffffffffffffffffffffff16638204b67a6040518163ffffffff1660e01b8152600401602060405180830381865afa158015611628573d5f5f3e3d5ffd5b505050506040513d601f19601f8201168201806040525081019061164c91906142ad565b9050806fffffffffffffffffffffffffffffffff163410156116a3576040517f08c379a000000000000000000000000000000000000000000000000000000000815260040161169a90614322565b60405180910390fd5b8460065f60085f9054906101000a900473ffffffffffffffffffffffffffffffffffffffff1673ffffffffffffffffffffffffffffffffffffffff16637b43155d856fffffffffffffffffffffffffffffffff166040518263ffffffff1660e01b815260040160206040518083038185885af1158015611725573d5f5f3e3d5ffd5b50505050506040513d601f19601f8201168201806040525081019061174a9190614354565b67ffffffffffffffff1667ffffffffffffffff1681526020019081526020015f2081905550506117ce565b5f5f61178086612566565b9150915061178f868383612892565b600260015f8881526020019081526020015f20600c015f6101000a81548160ff021916908360048111156117c6576117c5613162565b5b021790555050505b50505050565b6002602052805f5260405f205f91509050805f015490806001015f9054906101000a900473ffffffffffffffffffffffffffffffffffffffff1690806002015f9054906101000a900473ffffffffffffffffffffffffffffffffffffffff16908060030154905084565b606061184a6003612af3565b905090565b611857612d27565b60015f8481526020019081526020015f206008015f8373ffffffffffffffffffffffffffffffffffffffff1673ffffffffffffffffffffffffffffffffffffffff1681526020019081526020015f206040518060800160405290815f82015f9054906101000a900460ff1660018111156118d4576118d3613162565b5b60018111156118e6576118e5613162565b5b81526020015f820160019054906101000a900473ffffffffffffffffffffffffffffffffffffffff1673ffffffffffffffffffffffffffffffffffffffff1673ffffffffffffffffffffffffffffffffffffffff16815260200160018201548152602001600282015481525050905092915050565b5f5f915091565b61196a6120c3565b5f73ffffffffffffffffffffffffffffffffffffffff168173ffffffffffffffffffffffffffffffffffffffff16036119da575f6040517f1e4fbdf70000000000000000000000000000000000000000000000000000000081526004016119d19190613407565b60405180910390fd5b6119e3816124a5565b50565b60095f9054906101000a900473ffffffffffffffffffffffffffffffffffffffff1681565b5f5f1b60025f8681526020019081526020015f205f015403611a2b575f5ffd5b60025f8581526020019081526020015f206001015f9054906101000a900473ffffffffffffffffffffffffffffffffffffffff1673ffffffffffffffffffffffffffffffffffffffff166350ca245084848460025f8a81526020019081526020015f206002015f9054906101000a900473ffffffffffffffffffffffffffffffffffffffff166040518563ffffffff1660e01b8152600401611ad09493929190613ffd565b5f604051808303815f87803b158015611ae7575f5ffd5b505af1158015611af9573d5f5f3e3d5ffd5b505050508160025f8681526020019081526020015f206004015f8681526020019081526020015f205f3373ffffffffffffffffffffffffffffffffffffffff1673ffffffffffffffffffffffffffffffffffffffff1681526020019081526020015f205f015f828254611b6c9190613ae4565b9250508190555050505050565b5f611b9e835f018373ffffffffffffffffffffffffffffffffffffffff165f1b612b12565b905092915050565b60016004811115611bba57611bb9613162565b5b60015f8681526020019081526020015f20600c015f9054906101000a900460ff166004811115611bed57611bec613162565b5b14611c24576040517f3cae8da900000000000000000000000000000000000000000000000000000000815260040160405180910390fd5b60015f8581526020019081526020015f206002015f8373ffffffffffffffffffffffffffffffffffffffff1673ffffffffffffffffffffffffffffffffffffffff1681526020019081526020015f205f9054906101000a900460ff16611cb6576040517f13bf15d300000000000000000000000000000000000000000000000000000000815260040160405180910390fd5b5f60015f8681526020019081526020015f206008015f3373ffffffffffffffffffffffffffffffffffffffff1673ffffffffffffffffffffffffffffffffffffffff1681526020019081526020015f206001015414611d41576040517f62b79b2c00000000000000000000000000000000000000000000000000000000815260040160405180910390fd5b6040518060800160405280846001811115611d5f57611d5e613162565b5b81526020018373ffffffffffffffffffffffffffffffffffffffff1681526020018281526020014281525060015f8681526020019081526020015f206008015f3373ffffffffffffffffffffffffffffffffffffffff1673ffffffffffffffffffffffffffffffffffffffff1681526020019081526020015f205f820151815f015f6101000a81548160ff02191690836001811115611e0157611e00613162565b5b02179055506020820151815f0160016101000a81548173ffffffffffffffffffffffffffffffffffffffff021916908373ffffffffffffffffffffffffffffffffffffffff16021790555060408201518160010155606082015181600201559050505f6001811115611e7657611e75613162565b5b836001811115611e8957611e88613162565b5b03611ef8578060015f8681526020019081526020015f206009015f8473ffffffffffffffffffffffffffffffffffffffff1673ffffffffffffffffffffffffffffffffffffffff1681526020019081526020015f205f828254611eec9190613ae4565b92505081905550611f5e565b8060015f8681526020019081526020015f20600a015f8473ffffffffffffffffffffffffffffffffffffffff1673ffffffffffffffffffffffffffffffffffffffff1681526020019081526020015f205f828254611f569190613ae4565b925050819055505b60015f8581526020019081526020015f2060040154610e1042611f819190613ae4565b10611ff95760015f8581526020019081526020015f20600b0133908060018154018082558091505060019003905f5260205f20015f9091909190916101000a81548173ffffffffffffffffffffffffffffffffffffffff021916908373ffffffffffffffffffffffffffffffffffffffff1602179055505b8173ffffffffffffffffffffffffffffffffffffffff166323b872dd3330846040518463ffffffff1660e01b81526004016120369392919061437f565b6020604051808303815f875af1158015612052573d5f5f3e3d5ffd5b505050506040513d601f19601f820116820180604052508101906120769190613c96565b503373ffffffffffffffffffffffffffffffffffffffff16845f1b7fa7885dc963acd7f4c4178c177b863f5a99c33f1321a4e2575070e6a7f5791adb60405160405180910390a350505050565b6120cb612b8e565b73ffffffffffffffffffffffffffffffffffffffff166120e9611139565b73ffffffffffffffffffffffffffffffffffffffff16146121485761210c612b8e565b6040517f118cdaa700000000000000000000000000000000000000000000000000000000815260040161213f9190613407565b60405180910390fd5b565b5f60085f9054906101000a900473ffffffffffffffffffffffffffffffffffffffff16905090565b5f60065f8567ffffffffffffffff1667ffffffffffffffff1681526020019081526020015f205490505f610e10835f1c6121ac91906143b4565b60015f8481526020019081526020015f20600401546121cb91906143e4565b90506121d5612d27565b5f60015f8581526020019081526020015f20600b018054905090505b5f8110612415575f60015f8681526020019081526020015f206008015f60015f8881526020019081526020015f20600b01848154811061223457612233613b17565b5b905f5260205f20015f9054906101000a900473ffffffffffffffffffffffffffffffffffffffff1673ffffffffffffffffffffffffffffffffffffffff1673ffffffffffffffffffffffffffffffffffffffff1681526020019081526020015f20905083816002015410156122a95750612415565b5f60018111156122bc576122bb613162565b5b815f015f9054906101000a900460ff1660018111156122de576122dd613162565b5b0361237457806001015460015f8781526020019081526020015f206009015f835f0160019054906101000a900473ffffffffffffffffffffffffffffffffffffffff1673ffffffffffffffffffffffffffffffffffffffff1673ffffffffffffffffffffffffffffffffffffffff1681526020019081526020015f205f82825461236891906143e4565b92505081905550612401565b806001015460015f8781526020019081526020015f20600a015f835f0160019054906101000a900473ffffffffffffffffffffffffffffffffffffffff1673ffffffffffffffffffffffffffffffffffffffff1673ffffffffffffffffffffffffffffffffffffffff1681526020019081526020015f205f8282546123f991906143e4565b925050819055505b50808061240d90614417565b9150506121f1565b505f5f61242185612566565b91509150612430858383612892565b600260015f8781526020019081526020015f20600c015f6101000a81548160ff0219169083600481111561246757612466613162565b5b02179055505050505050505050565b5f61249c845f018473ffffffffffffffffffffffffffffffffffffffff165f1b84612b95565b90509392505050565b5f5f5f9054906101000a900473ffffffffffffffffffffffffffffffffffffffff169050815f5f6101000a81548173ffffffffffffffffffffffffffffffffffffffff021916908373ffffffffffffffffffffffffffffffffffffffff1602179055508173ffffffffffffffffffffffffffffffffffffffff168173ffffffffffffffffffffffffffffffffffffffff167f8be0079c531659141344cd1fd0a4f28419497f9722a3daafe3b4186f6b6457e060405160405180910390a35050565b5f5f5f61257161183e565b90505f5f5f835190505f5f90505b818110156127fb5760015f8981526020019081526020015f206002015f8683815181106125af576125ae613b17565b5b602002602001015173ffffffffffffffffffffffffffffffffffffffff1673ffffffffffffffffffffffffffffffffffffffff1681526020019081526020015f205f9054906101000a900460ff16156127ee575f61263186838151811061261957612618613b17565b5b60200260200101516003611b7990919063ffffffff16565b90505f60095f9054906101000a900473ffffffffffffffffffffffffffffffffffffffff1673ffffffffffffffffffffffffffffffffffffffff1663a4ae35e083603c6040518363ffffffff1660e01b815260040161269192919061443e565b608060405180830381865afa1580156126ac573d5f5f3e3d5ffd5b505050506040513d601f19601f820116820180604052508101906126d09190614506565b90505f6126e4825f01518360400151611160565b905060015f8c81526020019081526020015f206009015f89868151811061270e5761270d613b17565b5b602002602001015173ffffffffffffffffffffffffffffffffffffffff1673ffffffffffffffffffffffffffffffffffffffff1681526020019081526020015f20548161275b9190613f5c565b876127669190613ae4565b965060015f8c81526020019081526020015f20600a015f8986815181106127905761278f613b17565b5b602002602001015173ffffffffffffffffffffffffffffffffffffffff1673ffffffffffffffffffffffffffffffffffffffff1681526020019081526020015f2054816127dd9190613f5c565b866127e89190613ae4565b95505050505b808060010191505061257f565b508183111561284a5761271060015f8981526020019081526020015f2060030154836128279190613f5c565b6128319190613ed1565b8361283c9190613ae4565b5f955095505050505061288d565b61271060015f8981526020019081526020015f20600301548461286d9190613f5c565b6128779190613ed1565b826128829190613ae4565b600195509550505050505b915091565b5f60018111156128a5576128a4613162565b5b8160018111156128b8576128b7613162565b5b036129cb5760015f8481526020019081526020015f206001015f9054906101000a900473ffffffffffffffffffffffffffffffffffffffff1660025f8581526020019081526020015f206001015f6101000a81548173ffffffffffffffffffffffffffffffffffffffff021916908373ffffffffffffffffffffffffffffffffffffffff16021790555060015f8481526020019081526020015f205f015f9054906101000a900473ffffffffffffffffffffffffffffffffffffffff1660025f8581526020019081526020015f206002015f6101000a81548173ffffffffffffffffffffffffffffffffffffffff021916908373ffffffffffffffffffffffffffffffffffffffff160217905550612ad5565b60015f8481526020019081526020015f205f015f9054906101000a900473ffffffffffffffffffffffffffffffffffffffff1660025f8581526020019081526020015f206001015f6101000a81548173ffffffffffffffffffffffffffffffffffffffff021916908373ffffffffffffffffffffffffffffffffffffffff16021790555060015f8481526020019081526020015f206001015f9054906101000a900473ffffffffffffffffffffffffffffffffffffffff1660025f8581526020019081526020015f206002015f6101000a81548173ffffffffffffffffffffffffffffffffffffffff021916908373ffffffffffffffffffffffffffffffffffffffff1602179055505b8160025f8581526020019081526020015f2060030181905550505050565b60605f612b01835f01612bcc565b905060608190508092505050919050565b5f5f836002015f8481526020019081526020015f205490505f5f1b81148015612b425750612b408484612be0565b155b15612b8457826040517f02b56686000000000000000000000000000000000000000000000000000000008152600401612b7b9190612fcf565b60405180910390fd5b8091505092915050565b5f33905090565b5f81846002015f8581526020019081526020015f2081905550612bc383855f01612bfe90919063ffffffff16565b90509392505050565b6060612bd9825f01612c13565b9050919050565b5f612bf682845f01612c3290919063ffffffff16565b905092915050565b5f612c0b835f0183612c47565b905092915050565b60605f612c21835f01612cae565b905060608190508092505050919050565b5f612c3f835f0183612d07565b905092915050565b5f612c528383612d07565b612ca457825f0182908060018154018082558091505060019003905f5260205f20015f9091909190915055825f0180549050836001015f8481526020019081526020015f208190555060019050612ca8565b5f90505b92915050565b6060815f01805480602002602001604051908101604052809291908181526020018280548015612cfb57602002820191905f5260205f20905b815481526020019060010190808311612ce7575b50505050509050919050565b5f5f836001015f8481526020019081526020015f20541415905092915050565b60405180608001604052805f6001811115612d4557612d44613162565b5b81526020015f73ffffffffffffffffffffffffffffffffffffffff1681526020015f81526020015f81525090565b5f604051905090565b5f5ffd5b5f5ffd5b5f73ffffffffffffffffffffffffffffffffffffffff82169050919050565b5f612dad82612d84565b9050919050565b5f612dbe82612da3565b9050919050565b612dce81612db4565b8114612dd8575f5ffd5b50565b5f81359050612de981612dc5565b92915050565b5f5ffd5b5f5ffd5b5f5ffd5b5f5f83601f840112612e1057612e0f612def565b5b8235905067ffffffffffffffff811115612e2d57612e2c612df3565b5b602083019150836020820283011115612e4957612e48612df7565b5b9250929050565b5f819050919050565b612e6281612e50565b8114612e6c575f5ffd5b50565b5f81359050612e7d81612e59565b92915050565b5f612e8d82612da3565b9050919050565b612e9d81612e83565b8114612ea7575f5ffd5b50565b5f81359050612eb881612e94565b92915050565b5f5f5f5f5f5f5f5f5f5f5f6101408c8e031215612ede57612edd612d7c565b5b5f612eeb8e828f01612ddb565b9b50506020612efc8e828f01612ddb565b9a505060408c013567ffffffffffffffff811115612f1d57612f1c612d80565b5b612f298e828f01612dfb565b99509950506060612f3c8e828f01612e6f565b9750506080612f4d8e828f01612e6f565b96505060a0612f5e8e828f01612e6f565b95505060c0612f6f8e828f01612e6f565b94505060e0612f808e828f01612e6f565b935050610100612f928e828f01612eaa565b925050610120612fa48e828f01612e6f565b9150509295989b509295989b9093969950565b5f819050919050565b612fc981612fb7565b82525050565b5f602082019050612fe25f830184612fc0565b92915050565b5f60208284031215612ffd57612ffc612d7c565b5b5f61300a84828501612e6f565b91505092915050565b5f6020828403121561302857613027612d7c565b5b5f61303584828501612eaa565b91505092915050565b5f819050919050565b5f61306161305c61305784612d84565b61303e565b612d84565b9050919050565b5f61307282613047565b9050919050565b5f61308382613068565b9050919050565b61309381613079565b82525050565b5f6020820190506130ac5f83018461308a565b92915050565b5f67ffffffffffffffff82169050919050565b6130ce816130b2565b81146130d8575f5ffd5b50565b5f813590506130e9816130c5565b92915050565b5f6020828403121561310457613103612d7c565b5b5f613111848285016130db565b91505092915050565b61312381612e50565b82525050565b5f60208201905061313c5f83018461311a565b92915050565b5f61314c82613068565b9050919050565b61315c81613142565b82525050565b7f4e487b71000000000000000000000000000000000000000000000000000000005f52602160045260245ffd5b600581106131a05761319f613162565b5b50565b5f8190506131b08261318f565b919050565b5f6131bf826131a3565b9050919050565b6131cf816131b5565b82525050565b5f610100820190506131e95f83018b613153565b6131f6602083018a613153565b613203604083018961311a565b613210606083018861311a565b61321d608083018761311a565b61322a60a083018661311a565b61323760c083018561311a565b61324460e08301846131c6565b9998505050505050505050565b61325a81612fb7565b8114613264575f5ffd5b50565b5f8135905061327581613251565b92915050565b5f5f6040838503121561329157613290612d7c565b5b5f61329e85828601612e6f565b92505060206132af85828601613267565b9150509250929050565b6132c281612da3565b81146132cc575f5ffd5b50565b5f813590506132dd816132b9565b92915050565b5f5f5f606084860312156132fa576132f9612d7c565b5b5f613307868287016130db565b9350506020613318868287016132cf565b925050604061332986828701613267565b9150509250925092565b5f5f6040838503121561334957613348612d7c565b5b5f61335685828601612eaa565b925050602061336785828601613267565b9150509250929050565b6002811061337d575f5ffd5b50565b5f8135905061338e81613371565b92915050565b5f5f5f5f608085870312156133ac576133ab612d7c565b5b5f6133b987828801612e6f565b94505060206133ca87828801613380565b93505060406133db87828801612eaa565b92505060606133ec87828801612e6f565b91505092959194509250565b61340181612da3565b82525050565b5f60208201905061341a5f8301846133f8565b92915050565b5f8160070b9050919050565b61343581613420565b811461343f575f5ffd5b50565b5f813590506134508161342c565b92915050565b5f8160030b9050919050565b61346b81613456565b8114613475575f5ffd5b50565b5f8135905061348681613462565b92915050565b5f5f604083850312156134a2576134a1612d7c565b5b5f6134af85828601613442565b92505060206134c085828601613478565b9150509250929050565b5f5ffd5b5f601f19601f8301169050919050565b7f4e487b71000000000000000000000000000000000000000000000000000000005f52604160045260245ffd5b613514826134ce565b810181811067ffffffffffffffff82111715613533576135326134de565b5b80604052505050565b5f613545612d73565b9050613551828261350b565b919050565b5f67ffffffffffffffff8211156135705761356f6134de565b5b613579826134ce565b9050602081019050919050565b828183375f83830152505050565b5f6135a66135a184613556565b61353c565b9050828152602081018484840111156135c2576135c16134ca565b5b6135cd848285613586565b509392505050565b5f82601f8301126135e9576135e8612def565b5b81356135f9848260208601613594565b91505092915050565b5f5f5f5f6080858703121561361a57613619612d7c565b5b5f61362787828801612e6f565b9450506020613638878288016132cf565b935050604061364987828801612e6f565b925050606085013567ffffffffffffffff81111561366a57613669612d80565b5b613676878288016135d5565b91505092959194509250565b5f5f83601f84011261369757613696612def565b5b8235905067ffffffffffffffff8111156136b4576136b3612df3565b5b6020830191508360208202830111156136d0576136cf612df7565b5b9250929050565b5f5f5f604084860312156136ee576136ed612d7c565b5b5f6136fb86828701612e6f565b935050602084013567ffffffffffffffff81111561371c5761371b612d80565b5b61372886828701613682565b92509250509250925092565b5f6080820190506137475f830187612fc0565b6137546020830186613153565b6137616040830185613153565b61376e606083018461311a565b95945050505050565b5f81519050919050565b5f82825260208201905092915050565b5f819050602082019050919050565b6137a981612da3565b82525050565b5f6137ba83836137a0565b60208301905092915050565b5f602082019050919050565b5f6137dc82613777565b6137e68185613781565b93506137f183613791565b805f5b8381101561382157815161380888826137af565b9750613813836137c6565b9250506001810190506137f4565b5085935050505092915050565b5f6020820190508181035f83015261384681846137d2565b905092915050565b5f5f6040838503121561386457613863612d7c565b5b5f61387185828601612e6f565b9250506020613882858286016132cf565b9150509250929050565b6002811061389d5761389c613162565b5b50565b5f8190506138ad8261388c565b919050565b5f6138bc826138a0565b9050919050565b6138cc816138b2565b82525050565b5f6138dc82613068565b9050919050565b6138ec816138d2565b82525050565b6138fb81612e50565b82525050565b608082015f8201516139155f8501826138c3565b50602082015161392860208501826138e3565b50604082015161393b60408501826138f2565b50606082015161394e60608501826138f2565b50505050565b5f6080820190506139675f830184613901565b92915050565b5f6040820190506139805f83018561311a565b61398d602083018461311a565b9392505050565b5f602082840312156139a9576139a8612d7c565b5b5f6139b6848285016132cf565b91505092915050565b5f6139c982613068565b9050919050565b6139d9816139bf565b82525050565b5f6020820190506139f25f8301846139d0565b92915050565b5f82825260208201905092915050565b7f496e76616c69642070656e616c697a6174696f6e0000000000000000000000005f82015250565b5f613a3c6014836139f8565b9150613a4782613a08565b602082019050919050565b5f6020820190508181035f830152613a6981613a30565b9050919050565b7f4e487b71000000000000000000000000000000000000000000000000000000005f52601160045260245ffd5b5f613aa782612e50565b91507fffffffffffffffffffffffffffffffffffffffffffffffffffffffffffffffff8203613ad957613ad8613a70565b5b600182019050919050565b5f613aee82612e50565b9150613af983612e50565b9250828201905080821115613b1157613b10613a70565b5b92915050565b7f4e487b71000000000000000000000000000000000000000000000000000000005f52603260045260245ffd5b7f456e74726f70792061646472657373206e6f74207365740000000000000000005f82015250565b5f613b786017836139f8565b9150613b8382613b44565b602082019050919050565b5f6020820190508181035f830152613ba581613b6c565b9050919050565b7f4f6e6c7920456e74726f70792063616e2063616c6c20746869732066756e63745f8201527f696f6e0000000000000000000000000000000000000000000000000000000000602082015250565b5f613c066023836139f8565b9150613c1182613bac565b604082019050919050565b5f6020820190508181035f830152613c3381613bfa565b9050919050565b5f604082019050613c4d5f8301856133f8565b613c5a602083018461311a565b9392505050565b5f8115159050919050565b613c7581613c61565b8114613c7f575f5ffd5b50565b5f81519050613c9081613c6c565b92915050565b5f60208284031215613cab57613caa612d7c565b5b5f613cb884828501613c82565b91505092915050565b5f613ccb82613456565b9150613cd683613456565b92508282039050637fffffff81137fffffffffffffffffffffffffffffffffffffffffffffffffffffffff8000000082121715613d1657613d15613a70565b5b92915050565b5f8160011c9050919050565b5f5f8291508390505b6001851115613d7157808604811115613d4d57613d4c613a70565b5b6001851615613d5c5780820291505b8081029050613d6a85613d1c565b9450613d31565b94509492505050565b5f82613d895760019050613e44565b81613d96575f9050613e44565b8160018114613dac5760028114613db657613de5565b6001915050613e44565b60ff841115613dc857613dc7613a70565b5b8360020a915084821115613ddf57613dde613a70565b5b50613e44565b5060208310610133831016604e8410600b8410161715613e1a5782820a905083811115613e1557613e14613a70565b5b613e44565b613e278484846001613d28565b92509050818404811115613e3e57613e3d613a70565b5b81810290505b9392505050565b5f63ffffffff82169050919050565b5f613e6482612e50565b9150613e6f83613e4b565b9250613e9c7fffffffffffffffffffffffffffffffffffffffffffffffffffffffffffffffff8484613d7a565b905092915050565b7f4e487b71000000000000000000000000000000000000000000000000000000005f52601260045260245ffd5b5f613edb82612e50565b9150613ee683612e50565b925082613ef657613ef5613ea4565b5b828204905092915050565b5f613f0b82613456565b9150613f1683613456565b925082820190507fffffffffffffffffffffffffffffffffffffffffffffffffffffffff800000008112637fffffff82131715613f5657613f55613a70565b5b92915050565b5f613f6682612e50565b9150613f7183612e50565b9250828202613f7f81612e50565b91508282048414831517613f9657613f95613a70565b5b5092915050565b5f81519050919050565b5f82825260208201905092915050565b8281835e5f83830152505050565b5f613fcf82613f9d565b613fd98185613fa7565b9350613fe9818560208601613fb7565b613ff2816134ce565b840191505092915050565b5f6080820190506140105f8301876133f8565b61401d602083018661311a565b818103604083015261402f8185613fc5565b905061403e60608301846133f8565b95945050505050565b7f6e6f742066696e616c697a6564000000000000000000000000000000000000005f82015250565b5f61407b600d836139f8565b915061408682614047565b602082019050919050565b5f6020820190508181035f8301526140a88161406f565b9050919050565b5f82825260208201905092915050565b5f819050919050565b5f82825260208201905092915050565b5f6140e383856140c8565b93506140f0838584613586565b6140f9836134ce565b840190509392505050565b5f6141108484846140d8565b90509392505050565b5f5ffd5b5f5ffd5b5f5ffd5b5f5f8335600160200384360303811261414157614140614121565b5b83810192508235915060208301925067ffffffffffffffff82111561416957614168614119565b5b60018202360383131561417f5761417e61411d565b5b509250929050565b5f602082019050919050565b5f61419e83856140af565b9350836020840285016141b0846140bf565b805f5b878110156141f55784840389526141ca8284614125565b6141d5868284614104565b95506141e084614187565b935060208b019a5050506001810190506141b3565b50829750879450505050509392505050565b5f6020820190508181035f830152614220818486614193565b90509392505050565b5f8151905061423781612e59565b92915050565b5f6020828403121561425257614251612d7c565b5b5f61425f84828501614229565b91505092915050565b5f6fffffffffffffffffffffffffffffffff82169050919050565b61428c81614268565b8114614296575f5ffd5b50565b5f815190506142a781614283565b92915050565b5f602082840312156142c2576142c1612d7c565b5b5f6142cf84828501614299565b91505092915050565b7f6e6f7420656e6f756768206665657300000000000000000000000000000000005f82015250565b5f61430c600f836139f8565b9150614317826142d8565b602082019050919050565b5f6020820190508181035f83015261433981614300565b9050919050565b5f8151905061434e816130c5565b92915050565b5f6020828403121561436957614368612d7c565b5b5f61437684828501614340565b91505092915050565b5f6060820190506143925f8301866133f8565b61439f60208301856133f8565b6143ac604083018461311a565b949350505050565b5f6143be82612e50565b91506143c983612e50565b9250826143d9576143d8613ea4565b5b828206905092915050565b5f6143ee82612e50565b91506143f983612e50565b925082820390508181111561441157614410613a70565b5b92915050565b5f61442182612e50565b91505f820361443357614432613a70565b5b600182039050919050565b5f6040820190506144515f830185612fc0565b61445e602083018461311a565b9392505050565b5f5ffd5b5f815190506144778161342c565b92915050565b5f8151905061448b81613462565b92915050565b5f608082840312156144a6576144a5614465565b5b6144b0608061353c565b90505f6144bf84828501614469565b5f8301525060206144d284828501614340565b60208301525060406144e68482850161447d565b60408301525060606144fa84828501614229565b60608301525092915050565b5f6080828403121561451b5761451a612d7c565b5b5f61452884828501614491565b9150509291505056fea2646970667358221220b6ca4c3b053b39cb85a7f5f2114af254414499299acbe1890eaece355b59edbc64736f6c634300081c0033",
  "linkReferences": {},
  "deployedLinkReferences": {},
  "immutableReferences": {},
  "inputSourceName": "project/contracts/BleethMeCore.sol",
  "buildInfoId": "solc-0_8_28-6ea63648060642492ef412006fca46fcc5a5f8c4"
}