{
  "_format": "hh3-artifact-1",
  "contractName": "BleethMeCore",
  "sourceName": "contracts/BleethMeCore.sol",
  "abi": [
    {
      "inputs": [
        {
          "internalType": "address",
          "name": "initialOwner",
          "type": "address"
        },
        {
          "internalType": "address",
          "name": "_entropy",
          "type": "address"
        }
      ],
      "stateMutability": "nonpayable",
      "type": "constructor"
    },
    {
      "inputs": [],
      "name": "BettingPeriodClosed",
      "type": "error"
    },
    {
      "inputs": [],
      "name": "InsufficientBetAmount",
      "type": "error"
    },
    {
      "inputs": [
        {
          "internalType": "address",
          "name": "owner",
          "type": "address"
        }
      ],
      "name": "OwnableInvalidOwner",
      "type": "error"
    },
    {
      "inputs": [
        {
          "internalType": "address",
          "name": "account",
          "type": "address"
        }
      ],
      "name": "OwnableUnauthorizedAccount",
      "type": "error"
    },
    {
      "inputs": [],
      "name": "RewardTokenNotWhitelisted",
      "type": "error"
    },
    {
      "anonymous": false,
      "inputs": [
        {
          "indexed": true,
          "internalType": "bytes32",
          "name": "poolId",
          "type": "bytes32"
        },
        {
          "indexed": true,
          "internalType": "address",
          "name": "user",
          "type": "address"
        }
      ],
      "name": "BetPlaced",
      "type": "event"
    },
    {
      "anonymous": false,
      "inputs": [
        {
          "indexed": true,
          "internalType": "address",
          "name": "previousOwner",
          "type": "address"
        },
        {
          "indexed": true,
          "internalType": "address",
          "name": "newOwner",
          "type": "address"
        }
      ],
      "name": "OwnershipTransferred",
      "type": "event"
    },
    {
      "anonymous": false,
      "inputs": [
        {
          "indexed": true,
          "internalType": "address",
          "name": "token",
          "type": "address"
        },
        {
          "indexed": true,
          "internalType": "bool",
          "name": "status",
          "type": "bool"
        }
      ],
      "name": "RewardTokenWhitelisted",
      "type": "event"
    },
    {
      "anonymous": false,
      "inputs": [
        {
          "indexed": true,
          "internalType": "bytes32",
          "name": "poolId",
          "type": "bytes32"
        },
        {
          "indexed": true,
          "internalType": "address",
          "name": "attacker",
          "type": "address"
        },
        {
          "indexed": true,
          "internalType": "address",
          "name": "victim",
          "type": "address"
        }
      ],
      "name": "VAPoolCreated",
      "type": "event"
    },
    {
      "inputs": [
        {
          "internalType": "uint64",
          "name": "sequence",
          "type": "uint64"
        },
        {
          "internalType": "address",
          "name": "provider",
          "type": "address"
        },
        {
          "internalType": "bytes32",
          "name": "randomNumber",
          "type": "bytes32"
        }
      ],
      "name": "_entropyCallback",
      "outputs": [],
      "stateMutability": "nonpayable",
      "type": "function"
    },
    {
      "inputs": [
        {
          "internalType": "uint256",
          "name": "vaPoolId",
          "type": "uint256"
        }
      ],
      "name": "computeTotalBets",
      "outputs": [
        {
          "internalType": "uint256",
          "name": "totalFor",
          "type": "uint256"
        },
        {
          "internalType": "uint256",
          "name": "totalAgainst",
          "type": "uint256"
        }
      ],
      "stateMutability": "view",
      "type": "function"
    },
    {
      "inputs": [
        {
          "internalType": "contract IBaseAdapter",
          "name": "attacker",
          "type": "address"
        },
        {
          "internalType": "contract IBaseAdapter",
          "name": "victim",
          "type": "address"
        },
        {
          "internalType": "contract IERC20[]",
          "name": "rewardTokens",
          "type": "address[]"
        },
        {
          "internalType": "uint256",
          "name": "penalizationCoefficient",
          "type": "uint256"
        },
        {
          "internalType": "uint256",
          "name": "auctionDuration",
          "type": "uint256"
        },
        {
          "internalType": "uint256",
          "name": "liquidityMigrationDelay",
          "type": "uint256"
        },
        {
          "internalType": "uint256",
          "name": "lockDuration",
          "type": "uint256"
        },
        {
          "internalType": "uint256",
          "name": "snapshotLookupTimestamp",
          "type": "uint256"
        },
        {
          "internalType": "contract IERC20",
          "name": "initialBetToken",
          "type": "address"
        },
        {
          "internalType": "uint256",
          "name": "initialBetAmount",
          "type": "uint256"
        }
      ],
      "name": "createVaPool",
      "outputs": [
        {
          "internalType": "bytes32",
          "name": "poolId",
          "type": "bytes32"
        }
      ],
      "stateMutability": "nonpayable",
      "type": "function"
    },
    {
      "inputs": [],
      "name": "entropy",
      "outputs": [
        {
          "internalType": "contract IEntropyV2",
          "name": "",
          "type": "address"
        }
      ],
      "stateMutability": "view",
      "type": "function"
    },
    {
      "inputs": [
        {
          "internalType": "uint256",
          "name": "vaPoolId",
          "type": "uint256"
        }
      ],
      "name": "finalizeBetting",
      "outputs": [],
      "stateMutability": "payable",
      "type": "function"
    },
    {
      "inputs": [
        {
          "internalType": "uint256",
          "name": "vaPoolId",
          "type": "uint256"
        },
        {
          "internalType": "address",
          "name": "better",
          "type": "address"
        }
      ],
      "name": "getBet",
      "outputs": [
        {
          "components": [
            {
              "internalType": "enum IBleethMeCore.BetSide",
              "name": "side",
              "type": "uint8"
            },
            {
              "internalType": "contract IERC20",
              "name": "token",
              "type": "address"
            },
            {
              "internalType": "uint256",
              "name": "amount",
              "type": "uint256"
            },
            {
              "internalType": "uint256",
              "name": "timestamp",
              "type": "uint256"
            }
          ],
          "internalType": "struct IBleethMeCore.Bet",
          "name": "",
          "type": "tuple"
        }
      ],
      "stateMutability": "view",
      "type": "function"
    },
    {
      "inputs": [],
      "name": "owner",
      "outputs": [
        {
          "internalType": "address",
          "name": "",
          "type": "address"
        }
      ],
      "stateMutability": "view",
      "type": "function"
    },
    {
      "inputs": [
        {
          "internalType": "uint256",
          "name": "vaPoolId",
          "type": "uint256"
        },
        {
          "internalType": "enum IBleethMeCore.BetSide",
          "name": "side",
          "type": "uint8"
        },
        {
          "internalType": "contract IERC20",
          "name": "token",
          "type": "address"
        },
        {
          "internalType": "uint256",
          "name": "amount",
          "type": "uint256"
        }
      ],
      "name": "placeBet",
      "outputs": [],
      "stateMutability": "nonpayable",
      "type": "function"
    },
    {
      "inputs": [
        {
          "internalType": "uint64",
          "name": "sequenceNumber",
          "type": "uint64"
        }
      ],
      "name": "randomnessMapping",
      "outputs": [
        {
          "internalType": "uint256",
          "name": "vaPoolId",
          "type": "uint256"
        }
      ],
      "stateMutability": "view",
      "type": "function"
    },
    {
      "inputs": [],
      "name": "renounceOwnership",
      "outputs": [],
      "stateMutability": "nonpayable",
      "type": "function"
    },
    {
      "inputs": [
        {
          "internalType": "contract IERC20",
          "name": "token",
          "type": "address"
        },
        {
          "internalType": "bool",
          "name": "status",
          "type": "bool"
        }
      ],
      "name": "setWhitelistRewardToken",
      "outputs": [],
      "stateMutability": "nonpayable",
      "type": "function"
    },
    {
      "inputs": [
        {
          "internalType": "address",
          "name": "newOwner",
          "type": "address"
        }
      ],
      "name": "transferOwnership",
      "outputs": [],
      "stateMutability": "nonpayable",
      "type": "function"
    },
    {
      "inputs": [],
      "name": "vaPoolCount",
      "outputs": [
        {
          "internalType": "uint256",
          "name": "",
          "type": "uint256"
        }
      ],
      "stateMutability": "view",
      "type": "function"
    },
    {
      "inputs": [
        {
          "internalType": "uint256",
          "name": "",
          "type": "uint256"
        }
      ],
      "name": "vaPools",
      "outputs": [
        {
          "internalType": "contract IBaseAdapter",
          "name": "attacker",
          "type": "address"
        },
        {
          "internalType": "contract IBaseAdapter",
          "name": "victim",
          "type": "address"
        },
        {
          "internalType": "uint256",
          "name": "penalizationCoefficient",
          "type": "uint256"
        },
        {
          "internalType": "uint256",
          "name": "auctionEndTimestamp",
          "type": "uint256"
        },
        {
          "internalType": "uint256",
          "name": "liquidityMigrationTimestamp",
          "type": "uint256"
        },
        {
          "internalType": "uint256",
          "name": "lockTimestamp",
          "type": "uint256"
        },
        {
          "internalType": "uint256",
          "name": "snapshotLookupTimestamp",
          "type": "uint256"
        },
        {
          "internalType": "enum IBleethMeCore.VAPoolState",
          "name": "state",
          "type": "uint8"
        }
      ],
      "stateMutability": "view",
      "type": "function"
    },
    {
      "inputs": [
        {
          "internalType": "contract IERC20",
          "name": "",
          "type": "address"
        }
      ],
      "name": "whitelistedRewardTokens",
      "outputs": [
        {
          "internalType": "bool",
          "name": "",
          "type": "bool"
        }
      ],
      "stateMutability": "view",
      "type": "function"
    }
  ],
  "bytecode": "0x608060405234801561000f575f5ffd5b506040516123b83803806123b883398181016040528101906100319190610218565b815f73ffffffffffffffffffffffffffffffffffffffff168173ffffffffffffffffffffffffffffffffffffffff16036100a2575f6040517f1e4fbdf70000000000000000000000000000000000000000000000000000000081526004016100999190610265565b60405180910390fd5b6100b1816100f960201b60201c565b508060055f6101000a81548173ffffffffffffffffffffffffffffffffffffffff021916908373ffffffffffffffffffffffffffffffffffffffff160217905550505061027e565b5f5f5f9054906101000a900473ffffffffffffffffffffffffffffffffffffffff169050815f5f6101000a81548173ffffffffffffffffffffffffffffffffffffffff021916908373ffffffffffffffffffffffffffffffffffffffff1602179055508173ffffffffffffffffffffffffffffffffffffffff168173ffffffffffffffffffffffffffffffffffffffff167f8be0079c531659141344cd1fd0a4f28419497f9722a3daafe3b4186f6b6457e060405160405180910390a35050565b5f5ffd5b5f73ffffffffffffffffffffffffffffffffffffffff82169050919050565b5f6101e7826101be565b9050919050565b6101f7816101dd565b8114610201575f5ffd5b50565b5f81519050610212816101ee565b92915050565b5f5f6040838503121561022e5761022d6101ba565b5b5f61023b85828601610204565b925050602061024c85828601610204565b9150509250929050565b61025f816101dd565b82525050565b5f6020820190506102785f830184610256565b92915050565b61212d8061028b5f395ff3fe6080604052600436106100e7575f3560e01c8063715018a611610089578063e066a65e11610058578063e066a65e146102ee578063e0950ddf1461030a578063eba0f21814610346578063f2fde38b14610383576100e7565b8063715018a61461025c5780638da5cb5b146102725780638e863b461461029c578063adf62bac146102c4576100e7565b80634f63879a116100c55780634f63879a1461018d5780635225f987146101d057806352a5f1f81461020c5780636d986db014610234576100e7565b8063202d293f146100eb57806347ce07cc146101275780634a02a1a914610151575b5f5ffd5b3480156100f6575f5ffd5b50610111600480360381019061010c9190611638565b6103ab565b60405161011e9190611749565b60405180910390f35b348015610132575f5ffd5b5061013b6107f9565b60405161014891906117bd565b60405180910390f35b34801561015c575f5ffd5b5061017760048036038101906101729190611813565b61081e565b604051610184919061184d565b60405180910390f35b348015610198575f5ffd5b506101b360048036038101906101ae9190611866565b610833565b6040516101c7989796959493929190611924565b60405180910390f35b3480156101db575f5ffd5b506101f660048036038101906101f191906119a0565b6108c1565b60405161020391906119e5565b60405180910390f35b348015610217575f5ffd5b50610232600480360381019061022d9190611a52565b6108de565b005b34801561023f575f5ffd5b5061025a60048036038101906102559190611ac5565b6109d6565b005b348015610267575f5ffd5b506102706109e8565b005b34801561027d575f5ffd5b506102866109fb565b6040516102939190611b38565b60405180910390f35b3480156102a7575f5ffd5b506102c260048036038101906102bd9190611b7b565b610a22565b005b3480156102cf575f5ffd5b506102d8610ac8565b6040516102e5919061184d565b60405180910390f35b61030860048036038101906103039190611866565b610ace565b005b348015610315575f5ffd5b50610330600480360381019061032b9190611bb9565b610cdb565b60405161033d9190611cbf565b60405180910390f35b348015610351575f5ffd5b5061036c60048036038101906103679190611866565b610de7565b60405161037a929190611cd8565b60405180910390f35b34801561038e575f5ffd5b506103a960048036038101906103a49190611cff565b610dee565b005b5f8b60015f60045f81546103be90611d57565b91905081905581526020019081526020015f205f015f6101000a81548173ffffffffffffffffffffffffffffffffffffffff021916908373ffffffffffffffffffffffffffffffffffffffff1602179055508a60015f60045481526020019081526020015f206001015f6101000a81548173ffffffffffffffffffffffffffffffffffffffff021916908373ffffffffffffffffffffffffffffffffffffffff1602179055508760015f60045481526020019081526020015f2060030181905550864261048b9190611d9e565b60015f60045481526020019081526020015f20600401819055508587426104b29190611d9e565b6104bc9190611d9e565b60015f60045481526020019081526020015f2060050181905550848688426104e49190611d9e565b6104ee9190611d9e565b6104f89190611d9e565b60015f60045481526020019081526020015f20600601819055508360015f60045481526020019081526020015f20600701819055506001805f60045481526020019081526020015f20600c015f6101000a81548160ff02191690836004811115610565576105646118b1565b5b02179055505f8a8a905090505f5f90505b818110156106c15760025f8d8d8481811061059457610593611dd1565b5b90506020020160208101906105a991906119a0565b73ffffffffffffffffffffffffffffffffffffffff1673ffffffffffffffffffffffffffffffffffffffff1681526020019081526020015f205f9054906101000a900460ff16610625576040517f13bf15d300000000000000000000000000000000000000000000000000000000815260040160405180910390fd5b6001805f60045481526020019081526020015f206002015f8e8e858181106106505761064f611dd1565b5b905060200201602081019061066591906119a0565b73ffffffffffffffffffffffffffffffffffffffff1673ffffffffffffffffffffffffffffffffffffffff1681526020019081526020015f205f6101000a81548160ff0219169083151502179055508080600101915050610576565b505f8310156106fc576040517f06f075a400000000000000000000000000000000000000000000000000000000815260040160405180910390fd5b60025f8573ffffffffffffffffffffffffffffffffffffffff1673ffffffffffffffffffffffffffffffffffffffff1681526020019081526020015f205f9054906101000a900460ff1661077c576040517f13bf15d300000000000000000000000000000000000000000000000000000000815260040160405180910390fd5b61078a6004545f8686610e72565b8b73ffffffffffffffffffffffffffffffffffffffff168d73ffffffffffffffffffffffffffffffffffffffff166004545f1b7ff74d89d0a53b6902cca5170f8dfd91e41f0ebdbb768b2749d3b17a1ed1372f0260405160405180910390a4509b9a5050505050505050505050565b60055f9054906101000a900473ffffffffffffffffffffffffffffffffffffffff1681565b6003602052805f5260405f205f915090505481565b6001602052805f5260405f205f91509050805f015f9054906101000a900473ffffffffffffffffffffffffffffffffffffffff1690806001015f9054906101000a900473ffffffffffffffffffffffffffffffffffffffff169080600301549080600401549080600501549080600601549080600701549080600c015f9054906101000a900460ff16905088565b6002602052805f5260405f205f915054906101000a900460ff1681565b5f6108e7611304565b90505f73ffffffffffffffffffffffffffffffffffffffff168173ffffffffffffffffffffffffffffffffffffffff1603610957576040517f08c379a000000000000000000000000000000000000000000000000000000000815260040161094e90611e58565b60405180910390fd5b8073ffffffffffffffffffffffffffffffffffffffff163373ffffffffffffffffffffffffffffffffffffffff16146109c5576040517f08c379a00000000000000000000000000000000000000000000000000000000081526004016109bc90611ee6565b60405180910390fd5b6109d084848461132c565b50505050565b6109e284848484610e72565b50505050565b6109f061135b565b6109f95f6113e2565b565b5f5f5f9054906101000a900473ffffffffffffffffffffffffffffffffffffffff16905090565b610a2a61135b565b8060025f8473ffffffffffffffffffffffffffffffffffffffff1673ffffffffffffffffffffffffffffffffffffffff1681526020019081526020015f205f6101000a81548160ff0219169083151502179055508015158273ffffffffffffffffffffffffffffffffffffffff167ff1c8fd992450a2932c00d59cd5cc60c318778bcf0101eeb5ff14e1001f8ec78160405160405180910390a35050565b60045481565b60015f8281526020019081526020015f2060040154421015610b25576040517f08c379a0000000000000000000000000000000000000000000000000000000008152600401610b1c90611f4e565b60405180910390fd5b5f60055f9054906101000a900473ffffffffffffffffffffffffffffffffffffffff1673ffffffffffffffffffffffffffffffffffffffff16638204b67a6040518163ffffffff1660e01b8152600401602060405180830381865afa158015610b90573d5f5f3e3d5ffd5b505050506040513d601f19601f82011682018060405250810190610bb49190611fb1565b9050806fffffffffffffffffffffffffffffffff16341015610c0b576040517f08c379a0000000000000000000000000000000000000000000000000000000008152600401610c0290612026565b60405180910390fd5b8160035f60055f9054906101000a900473ffffffffffffffffffffffffffffffffffffffff1673ffffffffffffffffffffffffffffffffffffffff16637b43155d856fffffffffffffffffffffffffffffffff166040518263ffffffff1660e01b815260040160206040518083038185885af1158015610c8d573d5f5f3e3d5ffd5b50505050506040513d601f19601f82011682018060405250810190610cb29190612058565b67ffffffffffffffff1667ffffffffffffffff1681526020019081526020015f20819055505050565b610ce36114aa565b60015f8481526020019081526020015f206008015f8373ffffffffffffffffffffffffffffffffffffffff1673ffffffffffffffffffffffffffffffffffffffff1681526020019081526020015f206040518060800160405290815f82015f9054906101000a900460ff166001811115610d6057610d5f6118b1565b5b6001811115610d7257610d716118b1565b5b81526020015f820160019054906101000a900473ffffffffffffffffffffffffffffffffffffffff1673ffffffffffffffffffffffffffffffffffffffff1673ffffffffffffffffffffffffffffffffffffffff16815260200160018201548152602001600282015481525050905092915050565b5f5f915091565b610df661135b565b5f73ffffffffffffffffffffffffffffffffffffffff168173ffffffffffffffffffffffffffffffffffffffff1603610e66575f6040517f1e4fbdf7000000000000000000000000000000000000000000000000000000008152600401610e5d9190611b38565b60405180910390fd5b610e6f816113e2565b50565b60016004811115610e8657610e856118b1565b5b60015f8681526020019081526020015f20600c015f9054906101000a900460ff166004811115610eb957610eb86118b1565b5b14610ef0576040517f3cae8da900000000000000000000000000000000000000000000000000000000815260040160405180910390fd5b60015f8581526020019081526020015f206002015f8373ffffffffffffffffffffffffffffffffffffffff1673ffffffffffffffffffffffffffffffffffffffff1681526020019081526020015f205f9054906101000a900460ff16610f82576040517f3cae8da900000000000000000000000000000000000000000000000000000000815260040160405180910390fd5b6040518060800160405280846001811115610fa057610f9f6118b1565b5b81526020018373ffffffffffffffffffffffffffffffffffffffff1681526020018281526020014281525060015f8681526020019081526020015f206008015f3373ffffffffffffffffffffffffffffffffffffffff1673ffffffffffffffffffffffffffffffffffffffff1681526020019081526020015f205f820151815f015f6101000a81548160ff02191690836001811115611042576110416118b1565b5b02179055506020820151815f0160016101000a81548173ffffffffffffffffffffffffffffffffffffffff021916908373ffffffffffffffffffffffffffffffffffffffff16021790555060408201518160010155606082015181600201559050505f60018111156110b7576110b66118b1565b5b8360018111156110ca576110c96118b1565b5b03611139578060015f8681526020019081526020015f206009015f8473ffffffffffffffffffffffffffffffffffffffff1673ffffffffffffffffffffffffffffffffffffffff1681526020019081526020015f205f82825461112d9190611d9e565b9250508190555061119f565b8060015f8681526020019081526020015f20600a015f8473ffffffffffffffffffffffffffffffffffffffff1673ffffffffffffffffffffffffffffffffffffffff1681526020019081526020015f205f8282546111979190611d9e565b925050819055505b60015f8581526020019081526020015f2060040154610e10426111c29190611d9e565b1061123a5760015f8581526020019081526020015f20600b0133908060018154018082558091505060019003905f5260205f20015f9091909190916101000a81548173ffffffffffffffffffffffffffffffffffffffff021916908373ffffffffffffffffffffffffffffffffffffffff1602179055505b8173ffffffffffffffffffffffffffffffffffffffff166323b872dd3330846040518463ffffffff1660e01b815260040161127793929190612083565b6020604051808303815f875af1158015611293573d5f5f3e3d5ffd5b505050506040513d601f19601f820116820180604052508101906112b791906120cc565b503373ffffffffffffffffffffffffffffffffffffffff16845f1b7fa7885dc963acd7f4c4178c177b863f5a99c33f1321a4e2575070e6a7f5791adb60405160405180910390a350505050565b5f60055f9054906101000a900473ffffffffffffffffffffffffffffffffffffffff16905090565b5f60035f8567ffffffffffffffff1667ffffffffffffffff1681526020019081526020015f2054905050505050565b6113636114a3565b73ffffffffffffffffffffffffffffffffffffffff166113816109fb565b73ffffffffffffffffffffffffffffffffffffffff16146113e0576113a46114a3565b6040517f118cdaa70000000000000000000000000000000000000000000000000000000081526004016113d79190611b38565b60405180910390fd5b565b5f5f5f9054906101000a900473ffffffffffffffffffffffffffffffffffffffff169050815f5f6101000a81548173ffffffffffffffffffffffffffffffffffffffff021916908373ffffffffffffffffffffffffffffffffffffffff1602179055508173ffffffffffffffffffffffffffffffffffffffff168173ffffffffffffffffffffffffffffffffffffffff167f8be0079c531659141344cd1fd0a4f28419497f9722a3daafe3b4186f6b6457e060405160405180910390a35050565b5f33905090565b60405180608001604052805f60018111156114c8576114c76118b1565b5b81526020015f73ffffffffffffffffffffffffffffffffffffffff1681526020015f81526020015f81525090565b5f5ffd5b5f5ffd5b5f73ffffffffffffffffffffffffffffffffffffffff82169050919050565b5f611527826114fe565b9050919050565b5f6115388261151d565b9050919050565b6115488161152e565b8114611552575f5ffd5b50565b5f813590506115638161153f565b92915050565b5f5ffd5b5f5ffd5b5f5ffd5b5f5f83601f84011261158a57611589611569565b5b8235905067ffffffffffffffff8111156115a7576115a661156d565b5b6020830191508360208202830111156115c3576115c2611571565b5b9250929050565b5f819050919050565b6115dc816115ca565b81146115e6575f5ffd5b50565b5f813590506115f7816115d3565b92915050565b5f6116078261151d565b9050919050565b611617816115fd565b8114611621575f5ffd5b50565b5f813590506116328161160e565b92915050565b5f5f5f5f5f5f5f5f5f5f5f6101408c8e031215611658576116576114f6565b5b5f6116658e828f01611555565b9b505060206116768e828f01611555565b9a505060408c013567ffffffffffffffff811115611697576116966114fa565b5b6116a38e828f01611575565b995099505060606116b68e828f016115e9565b97505060806116c78e828f016115e9565b96505060a06116d88e828f016115e9565b95505060c06116e98e828f016115e9565b94505060e06116fa8e828f016115e9565b93505061010061170c8e828f01611624565b92505061012061171e8e828f016115e9565b9150509295989b509295989b9093969950565b5f819050919050565b61174381611731565b82525050565b5f60208201905061175c5f83018461173a565b92915050565b5f819050919050565b5f61178561178061177b846114fe565b611762565b6114fe565b9050919050565b5f6117968261176b565b9050919050565b5f6117a78261178c565b9050919050565b6117b78161179d565b82525050565b5f6020820190506117d05f8301846117ae565b92915050565b5f67ffffffffffffffff82169050919050565b6117f2816117d6565b81146117fc575f5ffd5b50565b5f8135905061180d816117e9565b92915050565b5f60208284031215611828576118276114f6565b5b5f611835848285016117ff565b91505092915050565b611847816115ca565b82525050565b5f6020820190506118605f83018461183e565b92915050565b5f6020828403121561187b5761187a6114f6565b5b5f611888848285016115e9565b91505092915050565b5f61189b8261178c565b9050919050565b6118ab81611891565b82525050565b7f4e487b71000000000000000000000000000000000000000000000000000000005f52602160045260245ffd5b600581106118ef576118ee6118b1565b5b50565b5f8190506118ff826118de565b919050565b5f61190e826118f2565b9050919050565b61191e81611904565b82525050565b5f610100820190506119385f83018b6118a2565b611945602083018a6118a2565b611952604083018961183e565b61195f606083018861183e565b61196c608083018761183e565b61197960a083018661183e565b61198660c083018561183e565b61199360e0830184611915565b9998505050505050505050565b5f602082840312156119b5576119b46114f6565b5b5f6119c284828501611624565b91505092915050565b5f8115159050919050565b6119df816119cb565b82525050565b5f6020820190506119f85f8301846119d6565b92915050565b611a078161151d565b8114611a11575f5ffd5b50565b5f81359050611a22816119fe565b92915050565b611a3181611731565b8114611a3b575f5ffd5b50565b5f81359050611a4c81611a28565b92915050565b5f5f5f60608486031215611a6957611a686114f6565b5b5f611a76868287016117ff565b9350506020611a8786828701611a14565b9250506040611a9886828701611a3e565b9150509250925092565b60028110611aae575f5ffd5b50565b5f81359050611abf81611aa2565b92915050565b5f5f5f5f60808587031215611add57611adc6114f6565b5b5f611aea878288016115e9565b9450506020611afb87828801611ab1565b9350506040611b0c87828801611624565b9250506060611b1d878288016115e9565b91505092959194509250565b611b328161151d565b82525050565b5f602082019050611b4b5f830184611b29565b92915050565b611b5a816119cb565b8114611b64575f5ffd5b50565b5f81359050611b7581611b51565b92915050565b5f5f60408385031215611b9157611b906114f6565b5b5f611b9e85828601611624565b9250506020611baf85828601611b67565b9150509250929050565b5f5f60408385031215611bcf57611bce6114f6565b5b5f611bdc858286016115e9565b9250506020611bed85828601611a14565b9150509250929050565b60028110611c0857611c076118b1565b5b50565b5f819050611c1882611bf7565b919050565b5f611c2782611c0b565b9050919050565b611c3781611c1d565b82525050565b5f611c478261178c565b9050919050565b611c5781611c3d565b82525050565b611c66816115ca565b82525050565b608082015f820151611c805f850182611c2e565b506020820151611c936020850182611c4e565b506040820151611ca66040850182611c5d565b506060820151611cb96060850182611c5d565b50505050565b5f608082019050611cd25f830184611c6c565b92915050565b5f604082019050611ceb5f83018561183e565b611cf8602083018461183e565b9392505050565b5f60208284031215611d1457611d136114f6565b5b5f611d2184828501611a14565b91505092915050565b7f4e487b71000000000000000000000000000000000000000000000000000000005f52601160045260245ffd5b5f611d61826115ca565b91507fffffffffffffffffffffffffffffffffffffffffffffffffffffffffffffffff8203611d9357611d92611d2a565b5b600182019050919050565b5f611da8826115ca565b9150611db3836115ca565b9250828201905080821115611dcb57611dca611d2a565b5b92915050565b7f4e487b71000000000000000000000000000000000000000000000000000000005f52603260045260245ffd5b5f82825260208201905092915050565b7f456e74726f70792061646472657373206e6f74207365740000000000000000005f82015250565b5f611e42601783611dfe565b9150611e4d82611e0e565b602082019050919050565b5f6020820190508181035f830152611e6f81611e36565b9050919050565b7f4f6e6c7920456e74726f70792063616e2063616c6c20746869732066756e63745f8201527f696f6e0000000000000000000000000000000000000000000000000000000000602082015250565b5f611ed0602383611dfe565b9150611edb82611e76565b604082019050919050565b5f6020820190508181035f830152611efd81611ec4565b9050919050565b7f6e6f742066696e616c697a6564000000000000000000000000000000000000005f82015250565b5f611f38600d83611dfe565b9150611f4382611f04565b602082019050919050565b5f6020820190508181035f830152611f6581611f2c565b9050919050565b5f6fffffffffffffffffffffffffffffffff82169050919050565b611f9081611f6c565b8114611f9a575f5ffd5b50565b5f81519050611fab81611f87565b92915050565b5f60208284031215611fc657611fc56114f6565b5b5f611fd384828501611f9d565b91505092915050565b7f6e6f7420656e6f756768206665657300000000000000000000000000000000005f82015250565b5f612010600f83611dfe565b915061201b82611fdc565b602082019050919050565b5f6020820190508181035f83015261203d81612004565b9050919050565b5f81519050612052816117e9565b92915050565b5f6020828403121561206d5761206c6114f6565b5b5f61207a84828501612044565b91505092915050565b5f6060820190506120965f830186611b29565b6120a36020830185611b29565b6120b0604083018461183e565b949350505050565b5f815190506120c681611b51565b92915050565b5f602082840312156120e1576120e06114f6565b5b5f6120ee848285016120b8565b9150509291505056fea264697066735822122090882c7aa9b3036395d640c7b09a10f6567c4edd4d2d8bd59171e4a079ace0ec64736f6c634300081c0033",
  "linkReferences": {},
  "deployedLinkReferences": {},
  "immutableReferences": {},
  "inputSourceName": "project/contracts/BleethMeCore.sol",
  "buildInfoId": "solc-0_8_28-32d38d43a8d8d64557f823207d648cedeb6167de"
}