{
  "_format": "hh3-artifact-1",
  "contractName": "BleethMeCore",
  "sourceName": "contracts/BleethMeCore.sol",
  "abi": [
    {
      "inputs": [
        {
          "internalType": "address",
          "name": "initialOwner",
          "type": "address"
        },
        {
          "internalType": "address",
          "name": "_entropy",
          "type": "address"
        }
      ],
      "stateMutability": "nonpayable",
      "type": "constructor"
    },
    {
      "inputs": [],
      "name": "BettingPeriodClosed",
      "type": "error"
    },
    {
      "inputs": [],
      "name": "InsufficientBetAmount",
      "type": "error"
    },
    {
      "inputs": [
        {
          "internalType": "address",
          "name": "owner",
          "type": "address"
        }
      ],
      "name": "OwnableInvalidOwner",
      "type": "error"
    },
    {
      "inputs": [
        {
          "internalType": "address",
          "name": "account",
          "type": "address"
        }
      ],
      "name": "OwnableUnauthorizedAccount",
      "type": "error"
    },
    {
      "inputs": [],
      "name": "RewardTokenNotWhitelisted",
      "type": "error"
    },
    {
      "anonymous": false,
      "inputs": [
        {
          "indexed": true,
          "internalType": "bytes32",
          "name": "poolId",
          "type": "bytes32"
        },
        {
          "indexed": true,
          "internalType": "address",
          "name": "user",
          "type": "address"
        }
      ],
      "name": "BetPlaced",
      "type": "event"
    },
    {
      "anonymous": false,
      "inputs": [
        {
          "indexed": true,
          "internalType": "address",
          "name": "previousOwner",
          "type": "address"
        },
        {
          "indexed": true,
          "internalType": "address",
          "name": "newOwner",
          "type": "address"
        }
      ],
      "name": "OwnershipTransferred",
      "type": "event"
    },
    {
      "anonymous": false,
      "inputs": [
        {
          "indexed": true,
          "internalType": "address",
          "name": "token",
          "type": "address"
        },
        {
          "indexed": true,
          "internalType": "bool",
          "name": "status",
          "type": "bool"
        }
      ],
      "name": "RewardTokenWhitelisted",
      "type": "event"
    },
    {
      "anonymous": false,
      "inputs": [
        {
          "indexed": true,
          "internalType": "bytes32",
          "name": "poolId",
          "type": "bytes32"
        },
        {
          "indexed": true,
          "internalType": "address",
          "name": "attacker",
          "type": "address"
        },
        {
          "indexed": true,
          "internalType": "address",
          "name": "victim",
          "type": "address"
        }
      ],
      "name": "VAPoolCreated",
      "type": "event"
    },
    {
      "inputs": [
        {
          "internalType": "uint64",
          "name": "sequence",
          "type": "uint64"
        },
        {
          "internalType": "address",
          "name": "provider",
          "type": "address"
        },
        {
          "internalType": "bytes32",
          "name": "randomNumber",
          "type": "bytes32"
        }
      ],
      "name": "_entropyCallback",
      "outputs": [],
      "stateMutability": "nonpayable",
      "type": "function"
    },
    {
      "inputs": [
        {
          "internalType": "contract IBaseAdapter",
          "name": "attacker",
          "type": "address"
        },
        {
          "internalType": "contract IBaseAdapter",
          "name": "victim",
          "type": "address"
        },
        {
          "internalType": "contract IERC20[]",
          "name": "rewardTokens",
          "type": "address[]"
        },
        {
          "internalType": "uint256",
          "name": "penalizationCoefficient",
          "type": "uint256"
        },
        {
          "internalType": "uint256",
          "name": "auctionDuration",
          "type": "uint256"
        },
        {
          "internalType": "uint256",
          "name": "liquidityMigrationDelay",
          "type": "uint256"
        },
        {
          "internalType": "uint256",
          "name": "lockDuration",
          "type": "uint256"
        },
        {
          "internalType": "uint256",
          "name": "snapshotLookupTimestamp",
          "type": "uint256"
        },
        {
          "components": [
            {
              "internalType": "enum IBleethMeCore.BetSide",
              "name": "side",
              "type": "uint8"
            },
            {
              "internalType": "contract IERC20",
              "name": "token",
              "type": "address"
            },
            {
              "internalType": "uint256",
              "name": "amount",
              "type": "uint256"
            }
          ],
          "internalType": "struct IBleethMeCore.Bet",
          "name": "initialBet",
          "type": "tuple"
        }
      ],
      "name": "createVaPool",
      "outputs": [
        {
          "internalType": "bytes32",
          "name": "poolId",
          "type": "bytes32"
        }
      ],
      "stateMutability": "nonpayable",
      "type": "function"
    },
    {
      "inputs": [],
      "name": "entropy",
      "outputs": [
        {
          "internalType": "contract IEntropyV2",
          "name": "",
          "type": "address"
        }
      ],
      "stateMutability": "view",
      "type": "function"
    },
    {
      "inputs": [
        {
          "internalType": "uint256",
          "name": "vaPoolId",
          "type": "uint256"
        }
      ],
      "name": "finalizeBetting",
      "outputs": [],
      "stateMutability": "payable",
      "type": "function"
    },
    {
      "inputs": [
        {
          "internalType": "uint256",
          "name": "vaPoolId",
          "type": "uint256"
        },
        {
          "internalType": "address",
          "name": "better",
          "type": "address"
        }
      ],
      "name": "getBet",
      "outputs": [
        {
          "components": [
            {
              "internalType": "enum IBleethMeCore.BetSide",
              "name": "side",
              "type": "uint8"
            },
            {
              "internalType": "contract IERC20",
              "name": "token",
              "type": "address"
            },
            {
              "internalType": "uint256",
              "name": "amount",
              "type": "uint256"
            }
          ],
          "internalType": "struct IBleethMeCore.Bet",
          "name": "",
          "type": "tuple"
        }
      ],
      "stateMutability": "view",
      "type": "function"
    },
    {
      "inputs": [],
      "name": "owner",
      "outputs": [
        {
          "internalType": "address",
          "name": "",
          "type": "address"
        }
      ],
      "stateMutability": "view",
      "type": "function"
    },
    {
      "inputs": [
        {
          "internalType": "uint256",
          "name": "vaPoolId",
          "type": "uint256"
        },
        {
          "components": [
            {
              "internalType": "enum IBleethMeCore.BetSide",
              "name": "side",
              "type": "uint8"
            },
            {
              "internalType": "contract IERC20",
              "name": "token",
              "type": "address"
            },
            {
              "internalType": "uint256",
              "name": "amount",
              "type": "uint256"
            }
          ],
          "internalType": "struct IBleethMeCore.Bet",
          "name": "bet",
          "type": "tuple"
        }
      ],
      "name": "placeBet",
      "outputs": [],
      "stateMutability": "nonpayable",
      "type": "function"
    },
    {
      "inputs": [
        {
          "internalType": "uint64",
          "name": "sequenceNumber",
          "type": "uint64"
        }
      ],
      "name": "randomnessMapping",
      "outputs": [
        {
          "internalType": "uint256",
          "name": "vaPoolId",
          "type": "uint256"
        }
      ],
      "stateMutability": "view",
      "type": "function"
    },
    {
      "inputs": [],
      "name": "renounceOwnership",
      "outputs": [],
      "stateMutability": "nonpayable",
      "type": "function"
    },
    {
      "inputs": [
        {
          "internalType": "contract IERC20",
          "name": "token",
          "type": "address"
        },
        {
          "internalType": "bool",
          "name": "status",
          "type": "bool"
        }
      ],
      "name": "setWhitelistRewardToken",
      "outputs": [],
      "stateMutability": "nonpayable",
      "type": "function"
    },
    {
      "inputs": [
        {
          "internalType": "address",
          "name": "newOwner",
          "type": "address"
        }
      ],
      "name": "transferOwnership",
      "outputs": [],
      "stateMutability": "nonpayable",
      "type": "function"
    },
    {
      "inputs": [],
      "name": "vaPoolCount",
      "outputs": [
        {
          "internalType": "uint256",
          "name": "",
          "type": "uint256"
        }
      ],
      "stateMutability": "view",
      "type": "function"
    },
    {
      "inputs": [
        {
          "internalType": "uint256",
          "name": "",
          "type": "uint256"
        }
      ],
      "name": "vaPools",
      "outputs": [
        {
          "internalType": "contract IBaseAdapter",
          "name": "attacker",
          "type": "address"
        },
        {
          "internalType": "contract IBaseAdapter",
          "name": "victim",
          "type": "address"
        },
        {
          "internalType": "uint256",
          "name": "penalizationCoefficient",
          "type": "uint256"
        },
        {
          "internalType": "uint256",
          "name": "auctionEndTimestamp",
          "type": "uint256"
        },
        {
          "internalType": "uint256",
          "name": "liquidityMigrationTimestamp",
          "type": "uint256"
        },
        {
          "internalType": "uint256",
          "name": "lockTimestamp",
          "type": "uint256"
        },
        {
          "internalType": "uint256",
          "name": "snapshotLookupTimestamp",
          "type": "uint256"
        },
        {
          "internalType": "enum IBleethMeCore.VAPoolState",
          "name": "state",
          "type": "uint8"
        }
      ],
      "stateMutability": "view",
      "type": "function"
    },
    {
      "inputs": [
        {
          "internalType": "contract IERC20",
          "name": "",
          "type": "address"
        }
      ],
      "name": "whitelistedRewardTokens",
      "outputs": [
        {
          "internalType": "bool",
          "name": "",
          "type": "bool"
        }
      ],
      "stateMutability": "view",
      "type": "function"
    }
  ],
  "bytecode": "0x608060405234801561000f575f5ffd5b506040516122f93803806122f983398181016040528101906100319190610218565b815f73ffffffffffffffffffffffffffffffffffffffff168173ffffffffffffffffffffffffffffffffffffffff16036100a2575f6040517f1e4fbdf70000000000000000000000000000000000000000000000000000000081526004016100999190610265565b60405180910390fd5b6100b1816100f960201b60201c565b508060055f6101000a81548173ffffffffffffffffffffffffffffffffffffffff021916908373ffffffffffffffffffffffffffffffffffffffff160217905550505061027e565b5f5f5f9054906101000a900473ffffffffffffffffffffffffffffffffffffffff169050815f5f6101000a81548173ffffffffffffffffffffffffffffffffffffffff021916908373ffffffffffffffffffffffffffffffffffffffff1602179055508173ffffffffffffffffffffffffffffffffffffffff168173ffffffffffffffffffffffffffffffffffffffff167f8be0079c531659141344cd1fd0a4f28419497f9722a3daafe3b4186f6b6457e060405160405180910390a35050565b5f5ffd5b5f73ffffffffffffffffffffffffffffffffffffffff82169050919050565b5f6101e7826101be565b9050919050565b6101f7816101dd565b8114610201575f5ffd5b50565b5f81519050610212816101ee565b92915050565b5f5f6040838503121561022e5761022d6101ba565b5b5f61023b85828601610204565b925050602061024c85828601610204565b9150509250929050565b61025f816101dd565b82525050565b5f6020820190506102785f830184610256565b92915050565b61206e8061028b5f395ff3fe6080604052600436106100dc575f3560e01c80638c2fae761161007e578063adf62bac11610058578063adf62bac146102b9578063e066a65e146102e3578063e0950ddf146102ff578063f2fde38b1461033b576100dc565b80638c2fae761461023f5780638da5cb5b146102675780638e863b4614610291576100dc565b80634f63879a116100ba5780634f63879a146101825780635225f987146101c557806352a5f1f814610201578063715018a614610229576100dc565b8063169a31b1146100e057806347ce07cc1461011c5780634a02a1a914610146575b5f5ffd5b3480156100eb575f5ffd5b5061010660048036038101906101019190611684565b610363565b6040516101139190611781565b60405180910390f35b348015610127575f5ffd5b50610130610732565b60405161013d91906117f5565b60405180910390f35b348015610151575f5ffd5b5061016c6004803603810190610167919061184b565b610757565b6040516101799190611885565b60405180910390f35b34801561018d575f5ffd5b506101a860048036038101906101a3919061189e565b61076c565b6040516101bc98979695949392919061195c565b60405180910390f35b3480156101d0575f5ffd5b506101eb60048036038101906101e691906119d8565b6107fa565b6040516101f89190611a1d565b60405180910390f35b34801561020c575f5ffd5b5061022760048036038101906102229190611a8a565b610817565b005b348015610234575f5ffd5b5061023d61090f565b005b34801561024a575f5ffd5b5061026560048036038101906102609190611ada565b610922565b005b348015610272575f5ffd5b5061027b610930565b6040516102889190611b27565b60405180910390f35b34801561029c575f5ffd5b506102b760048036038101906102b29190611b6a565b610957565b005b3480156102c4575f5ffd5b506102cd6109fd565b6040516102da9190611885565b60405180910390f35b6102fd60048036038101906102f8919061189e565b610a03565b005b34801561030a575f5ffd5b5061032560048036038101906103209190611ba8565b610c10565b6040516103329190611c9b565b60405180910390f35b348015610346575f5ffd5b50610361600480360381019061035c9190611cb4565b610d12565b005b5f8a60015f60045f815461037690611d0c565b91905081905581526020019081526020015f205f015f6101000a81548173ffffffffffffffffffffffffffffffffffffffff021916908373ffffffffffffffffffffffffffffffffffffffff1602179055508960015f60045481526020019081526020015f206001015f6101000a81548173ffffffffffffffffffffffffffffffffffffffff021916908373ffffffffffffffffffffffffffffffffffffffff1602179055508660015f60045481526020019081526020015f206003018190555085426104439190611d53565b60015f60045481526020019081526020015f206004018190555084864261046a9190611d53565b6104749190611d53565b60015f60045481526020019081526020015f20600501819055508385874261049c9190611d53565b6104a69190611d53565b6104b09190611d53565b60015f60045481526020019081526020015f20600601819055508260015f60045481526020019081526020015f20600701819055506001805f60045481526020019081526020015f20600c015f6101000a81548160ff0219169083600481111561051d5761051c6118e9565b5b02179055505f8989905090505f5f90505b818110156106795760025f8c8c8481811061054c5761054b611d86565b5b905060200201602081019061056191906119d8565b73ffffffffffffffffffffffffffffffffffffffff1673ffffffffffffffffffffffffffffffffffffffff1681526020019081526020015f205f9054906101000a900460ff166105dd576040517f13bf15d300000000000000000000000000000000000000000000000000000000815260040160405180910390fd5b6001805f60045481526020019081526020015f206002015f8d8d8581811061060857610607611d86565b5b905060200201602081019061061d91906119d8565b73ffffffffffffffffffffffffffffffffffffffff1673ffffffffffffffffffffffffffffffffffffffff1681526020019081526020015f205f6101000a81548160ff021916908315150217905550808060010191505061052e565b505f836040015110156106b8576040517f06f075a400000000000000000000000000000000000000000000000000000000815260040160405180910390fd5b6106c460045484610d96565b8a73ffffffffffffffffffffffffffffffffffffffff168c73ffffffffffffffffffffffffffffffffffffffff166004545f1b7ff74d89d0a53b6902cca5170f8dfd91e41f0ebdbb768b2749d3b17a1ed1372f0260405160405180910390a4509a9950505050505050505050565b60055f9054906101000a900473ffffffffffffffffffffffffffffffffffffffff1681565b6003602052805f5260405f205f915090505481565b6001602052805f5260405f205f91509050805f015f9054906101000a900473ffffffffffffffffffffffffffffffffffffffff1690806001015f9054906101000a900473ffffffffffffffffffffffffffffffffffffffff169080600301549080600401549080600501549080600601549080600701549080600c015f9054906101000a900460ff16905088565b6002602052805f5260405f205f915054906101000a900460ff1681565b5f61082061123d565b90505f73ffffffffffffffffffffffffffffffffffffffff168173ffffffffffffffffffffffffffffffffffffffff1603610890576040517f08c379a000000000000000000000000000000000000000000000000000000000815260040161088790611e0d565b60405180910390fd5b8073ffffffffffffffffffffffffffffffffffffffff163373ffffffffffffffffffffffffffffffffffffffff16146108fe576040517f08c379a00000000000000000000000000000000000000000000000000000000081526004016108f590611e9b565b60405180910390fd5b610909848484611265565b50505050565b610917611294565b6109205f61131b565b565b61092c8282610d96565b5050565b5f5f5f9054906101000a900473ffffffffffffffffffffffffffffffffffffffff16905090565b61095f611294565b8060025f8473ffffffffffffffffffffffffffffffffffffffff1673ffffffffffffffffffffffffffffffffffffffff1681526020019081526020015f205f6101000a81548160ff0219169083151502179055508015158273ffffffffffffffffffffffffffffffffffffffff167ff1c8fd992450a2932c00d59cd5cc60c318778bcf0101eeb5ff14e1001f8ec78160405160405180910390a35050565b60045481565b60015f8281526020019081526020015f2060040154421015610a5a576040517f08c379a0000000000000000000000000000000000000000000000000000000008152600401610a5190611f03565b60405180910390fd5b5f60055f9054906101000a900473ffffffffffffffffffffffffffffffffffffffff1673ffffffffffffffffffffffffffffffffffffffff16638204b67a6040518163ffffffff1660e01b8152600401602060405180830381865afa158015610ac5573d5f5f3e3d5ffd5b505050506040513d601f19601f82011682018060405250810190610ae99190611f66565b9050806fffffffffffffffffffffffffffffffff16341015610b40576040517f08c379a0000000000000000000000000000000000000000000000000000000008152600401610b3790611fdb565b60405180910390fd5b8160035f60055f9054906101000a900473ffffffffffffffffffffffffffffffffffffffff1673ffffffffffffffffffffffffffffffffffffffff16637b43155d856fffffffffffffffffffffffffffffffff166040518263ffffffff1660e01b815260040160206040518083038185885af1158015610bc2573d5f5f3e3d5ffd5b50505050506040513d601f19601f82011682018060405250810190610be7919061200d565b67ffffffffffffffff1667ffffffffffffffff1681526020019081526020015f20819055505050565b610c186113e3565b60015f8481526020019081526020015f206008015f8373ffffffffffffffffffffffffffffffffffffffff1673ffffffffffffffffffffffffffffffffffffffff1681526020019081526020015f206040518060600160405290815f82015f9054906101000a900460ff166001811115610c9557610c946118e9565b5b6001811115610ca757610ca66118e9565b5b81526020015f820160019054906101000a900473ffffffffffffffffffffffffffffffffffffffff1673ffffffffffffffffffffffffffffffffffffffff1673ffffffffffffffffffffffffffffffffffffffff168152602001600182015481525050905092915050565b610d1a611294565b5f73ffffffffffffffffffffffffffffffffffffffff168173ffffffffffffffffffffffffffffffffffffffff1603610d8a575f6040517f1e4fbdf7000000000000000000000000000000000000000000000000000000008152600401610d819190611b27565b60405180910390fd5b610d938161131b565b50565b60016004811115610daa57610da96118e9565b5b60015f8481526020019081526020015f20600c015f9054906101000a900460ff166004811115610ddd57610ddc6118e9565b5b14610e14576040517f3cae8da900000000000000000000000000000000000000000000000000000000815260040160405180910390fd5b60015f8381526020019081526020015f206002015f826020015173ffffffffffffffffffffffffffffffffffffffff1673ffffffffffffffffffffffffffffffffffffffff1681526020019081526020015f205f9054906101000a900460ff16610eaa576040517f3cae8da900000000000000000000000000000000000000000000000000000000815260040160405180910390fd5b8060015f8481526020019081526020015f206008015f3373ffffffffffffffffffffffffffffffffffffffff1673ffffffffffffffffffffffffffffffffffffffff1681526020019081526020015f205f820151815f015f6101000a81548160ff02191690836001811115610f2257610f216118e9565b5b02179055506020820151815f0160016101000a81548173ffffffffffffffffffffffffffffffffffffffff021916908373ffffffffffffffffffffffffffffffffffffffff160217905550604082015181600101559050505f6001811115610f8d57610f8c6118e9565b5b815f01516001811115610fa357610fa26118e9565b5b0361101a57806040015160015f8481526020019081526020015f206009015f836020015173ffffffffffffffffffffffffffffffffffffffff1673ffffffffffffffffffffffffffffffffffffffff1681526020019081526020015f205f82825461100e9190611d53565b92505081905550611088565b806040015160015f8481526020019081526020015f20600a015f836020015173ffffffffffffffffffffffffffffffffffffffff1673ffffffffffffffffffffffffffffffffffffffff1681526020019081526020015f205f8282546110809190611d53565b925050819055505b8060015f8481526020019081526020015f206008015f3373ffffffffffffffffffffffffffffffffffffffff1673ffffffffffffffffffffffffffffffffffffffff1681526020019081526020015f205f820151815f015f6101000a81548160ff02191690836001811115611100576110ff6118e9565b5b02179055506020820151815f0160016101000a81548173ffffffffffffffffffffffffffffffffffffffff021916908373ffffffffffffffffffffffffffffffffffffffff1602179055506040820151816001015590505060015f8381526020019081526020015f2060040154610e104261117b9190611d53565b106111f35760015f8381526020019081526020015f20600b0133908060018154018082558091505060019003905f5260205f20015f9091909190916101000a81548173ffffffffffffffffffffffffffffffffffffffff021916908373ffffffffffffffffffffffffffffffffffffffff1602179055505b3373ffffffffffffffffffffffffffffffffffffffff16825f1b7fa7885dc963acd7f4c4178c177b863f5a99c33f1321a4e2575070e6a7f5791adb60405160405180910390a35050565b5f60055f9054906101000a900473ffffffffffffffffffffffffffffffffffffffff16905090565b5f60035f8567ffffffffffffffff1667ffffffffffffffff1681526020019081526020015f2054905050505050565b61129c6113dc565b73ffffffffffffffffffffffffffffffffffffffff166112ba610930565b73ffffffffffffffffffffffffffffffffffffffff1614611319576112dd6113dc565b6040517f118cdaa70000000000000000000000000000000000000000000000000000000081526004016113109190611b27565b60405180910390fd5b565b5f5f5f9054906101000a900473ffffffffffffffffffffffffffffffffffffffff169050815f5f6101000a81548173ffffffffffffffffffffffffffffffffffffffff021916908373ffffffffffffffffffffffffffffffffffffffff1602179055508173ffffffffffffffffffffffffffffffffffffffff168173ffffffffffffffffffffffffffffffffffffffff167f8be0079c531659141344cd1fd0a4f28419497f9722a3daafe3b4186f6b6457e060405160405180910390a35050565b5f33905090565b60405180606001604052805f6001811115611401576114006118e9565b5b81526020015f73ffffffffffffffffffffffffffffffffffffffff1681526020015f81525090565b5f604051905090565b5f5ffd5b5f5ffd5b5f73ffffffffffffffffffffffffffffffffffffffff82169050919050565b5f6114638261143a565b9050919050565b5f61147482611459565b9050919050565b6114848161146a565b811461148e575f5ffd5b50565b5f8135905061149f8161147b565b92915050565b5f5ffd5b5f5ffd5b5f5ffd5b5f5f83601f8401126114c6576114c56114a5565b5b8235905067ffffffffffffffff8111156114e3576114e26114a9565b5b6020830191508360208202830111156114ff576114fe6114ad565b5b9250929050565b5f819050919050565b61151881611506565b8114611522575f5ffd5b50565b5f813590506115338161150f565b92915050565b5f5ffd5b5f601f19601f8301169050919050565b7f4e487b71000000000000000000000000000000000000000000000000000000005f52604160045260245ffd5b6115838261153d565b810181811067ffffffffffffffff821117156115a2576115a161154d565b5b80604052505050565b5f6115b4611429565b90506115c0828261157a565b919050565b600281106115d1575f5ffd5b50565b5f813590506115e2816115c5565b92915050565b5f6115f282611459565b9050919050565b611602816115e8565b811461160c575f5ffd5b50565b5f8135905061161d816115f9565b92915050565b5f6060828403121561163857611637611539565b5b61164260606115ab565b90505f611651848285016115d4565b5f8301525060206116648482850161160f565b602083015250604061167884828501611525565b60408301525092915050565b5f5f5f5f5f5f5f5f5f5f6101608b8d0312156116a3576116a2611432565b5b5f6116b08d828e01611491565b9a505060206116c18d828e01611491565b99505060408b013567ffffffffffffffff8111156116e2576116e1611436565b5b6116ee8d828e016114b1565b985098505060606117018d828e01611525565b96505060806117128d828e01611525565b95505060a06117238d828e01611525565b94505060c06117348d828e01611525565b93505060e06117458d828e01611525565b9250506101006117578d828e01611623565b9150509295989b9194979a5092959850565b5f819050919050565b61177b81611769565b82525050565b5f6020820190506117945f830184611772565b92915050565b5f819050919050565b5f6117bd6117b86117b38461143a565b61179a565b61143a565b9050919050565b5f6117ce826117a3565b9050919050565b5f6117df826117c4565b9050919050565b6117ef816117d5565b82525050565b5f6020820190506118085f8301846117e6565b92915050565b5f67ffffffffffffffff82169050919050565b61182a8161180e565b8114611834575f5ffd5b50565b5f8135905061184581611821565b92915050565b5f602082840312156118605761185f611432565b5b5f61186d84828501611837565b91505092915050565b61187f81611506565b82525050565b5f6020820190506118985f830184611876565b92915050565b5f602082840312156118b3576118b2611432565b5b5f6118c084828501611525565b91505092915050565b5f6118d3826117c4565b9050919050565b6118e3816118c9565b82525050565b7f4e487b71000000000000000000000000000000000000000000000000000000005f52602160045260245ffd5b60058110611927576119266118e9565b5b50565b5f81905061193782611916565b919050565b5f6119468261192a565b9050919050565b6119568161193c565b82525050565b5f610100820190506119705f83018b6118da565b61197d602083018a6118da565b61198a6040830189611876565b6119976060830188611876565b6119a46080830187611876565b6119b160a0830186611876565b6119be60c0830185611876565b6119cb60e083018461194d565b9998505050505050505050565b5f602082840312156119ed576119ec611432565b5b5f6119fa8482850161160f565b91505092915050565b5f8115159050919050565b611a1781611a03565b82525050565b5f602082019050611a305f830184611a0e565b92915050565b611a3f81611459565b8114611a49575f5ffd5b50565b5f81359050611a5a81611a36565b92915050565b611a6981611769565b8114611a73575f5ffd5b50565b5f81359050611a8481611a60565b92915050565b5f5f5f60608486031215611aa157611aa0611432565b5b5f611aae86828701611837565b9350506020611abf86828701611a4c565b9250506040611ad086828701611a76565b9150509250925092565b5f5f60808385031215611af057611aef611432565b5b5f611afd85828601611525565b9250506020611b0e85828601611623565b9150509250929050565b611b2181611459565b82525050565b5f602082019050611b3a5f830184611b18565b92915050565b611b4981611a03565b8114611b53575f5ffd5b50565b5f81359050611b6481611b40565b92915050565b5f5f60408385031215611b8057611b7f611432565b5b5f611b8d8582860161160f565b9250506020611b9e85828601611b56565b9150509250929050565b5f5f60408385031215611bbe57611bbd611432565b5b5f611bcb85828601611525565b9250506020611bdc85828601611a4c565b9150509250929050565b60028110611bf757611bf66118e9565b5b50565b5f819050611c0782611be6565b919050565b5f611c1682611bfa565b9050919050565b611c2681611c0c565b82525050565b5f611c36826117c4565b9050919050565b611c4681611c2c565b82525050565b611c5581611506565b82525050565b606082015f820151611c6f5f850182611c1d565b506020820151611c826020850182611c3d565b506040820151611c956040850182611c4c565b50505050565b5f606082019050611cae5f830184611c5b565b92915050565b5f60208284031215611cc957611cc8611432565b5b5f611cd684828501611a4c565b91505092915050565b7f4e487b71000000000000000000000000000000000000000000000000000000005f52601160045260245ffd5b5f611d1682611506565b91507fffffffffffffffffffffffffffffffffffffffffffffffffffffffffffffffff8203611d4857611d47611cdf565b5b600182019050919050565b5f611d5d82611506565b9150611d6883611506565b9250828201905080821115611d8057611d7f611cdf565b5b92915050565b7f4e487b71000000000000000000000000000000000000000000000000000000005f52603260045260245ffd5b5f82825260208201905092915050565b7f456e74726f70792061646472657373206e6f74207365740000000000000000005f82015250565b5f611df7601783611db3565b9150611e0282611dc3565b602082019050919050565b5f6020820190508181035f830152611e2481611deb565b9050919050565b7f4f6e6c7920456e74726f70792063616e2063616c6c20746869732066756e63745f8201527f696f6e0000000000000000000000000000000000000000000000000000000000602082015250565b5f611e85602383611db3565b9150611e9082611e2b565b604082019050919050565b5f6020820190508181035f830152611eb281611e79565b9050919050565b7f6e6f742066696e616c697a6564000000000000000000000000000000000000005f82015250565b5f611eed600d83611db3565b9150611ef882611eb9565b602082019050919050565b5f6020820190508181035f830152611f1a81611ee1565b9050919050565b5f6fffffffffffffffffffffffffffffffff82169050919050565b611f4581611f21565b8114611f4f575f5ffd5b50565b5f81519050611f6081611f3c565b92915050565b5f60208284031215611f7b57611f7a611432565b5b5f611f8884828501611f52565b91505092915050565b7f6e6f7420656e6f756768206665657300000000000000000000000000000000005f82015250565b5f611fc5600f83611db3565b9150611fd082611f91565b602082019050919050565b5f6020820190508181035f830152611ff281611fb9565b9050919050565b5f8151905061200781611821565b92915050565b5f6020828403121561202257612021611432565b5b5f61202f84828501611ff9565b9150509291505056fea264697066735822122056a2df3ad100b83d765c4b74923c0503e4afb8790ee12270a9f919764472366d64736f6c634300081c0033",
  "linkReferences": {},
  "deployedLinkReferences": {},
  "immutableReferences": {},
  "inputSourceName": "project/contracts/BleethMeCore.sol",
  "buildInfoId": "solc-0_8_28-935cbe97b79c04f556c9edd9bbb41312f77af316"
}