{
  "_format": "hh3-artifact-1",
  "contractName": "MockAdapter",
  "sourceName": "contracts/tests/mocks/MockAdapter.sol",
  "abi": [
    {
      "inputs": [
        {
          "internalType": "address",
          "name": "_core",
          "type": "address"
        }
      ],
      "stateMutability": "nonpayable",
      "type": "constructor"
    },
    {
      "inputs": [],
      "name": "AssetMismatch",
      "type": "error"
    },
    {
      "inputs": [],
      "name": "Unauthorized",
      "type": "error"
    },
    {
      "inputs": [
        {
          "internalType": "address",
          "name": "asset",
          "type": "address"
        },
        {
          "internalType": "uint256",
          "name": "amount",
          "type": "uint256"
        },
        {
          "internalType": "bytes",
          "name": "allocationData",
          "type": "bytes"
        },
        {
          "internalType": "address",
          "name": "liquidityMigrator",
          "type": "address"
        }
      ],
      "name": "allocateLiquidity",
      "outputs": [],
      "stateMutability": "nonpayable",
      "type": "function"
    },
    {
      "inputs": [],
      "name": "core",
      "outputs": [
        {
          "internalType": "address",
          "name": "",
          "type": "address"
        }
      ],
      "stateMutability": "view",
      "type": "function"
    },
    {
      "inputs": [
        {
          "internalType": "address",
          "name": "asset",
          "type": "address"
        },
        {
          "internalType": "uint256",
          "name": "amount",
          "type": "uint256"
        },
        {
          "internalType": "bytes",
          "name": "protocolData",
          "type": "bytes"
        },
        {
          "internalType": "address",
          "name": "destinationAdapter",
          "type": "address"
        }
      ],
      "name": "extractLiquidity",
      "outputs": [],
      "stateMutability": "nonpayable",
      "type": "function"
    }
  ],
  "bytecode": "0x60a0604052348015600e575f5ffd5b506040516102ae3803806102ae833981016040819052602b91603b565b6001600160a01b03166080526066565b5f60208284031215604a575f5ffd5b81516001600160a01b0381168114605f575f5ffd5b9392505050565b60805161022b6100835f395f8181605d015260a6015261022b5ff3fe608060405234801561000f575f5ffd5b506004361061003f575f3560e01c806350ca245014610043578063b118194d14610043578063f2f4eb2614610058575b5f5ffd5b610056610051366004610118565b61009b565b005b61007f7f000000000000000000000000000000000000000000000000000000000000000081565b6040516001600160a01b03909116815260200160405180910390f35b336001600160a01b037f000000000000000000000000000000000000000000000000000000000000000016146100e3576040516282b42960e81b815260040160405180910390fd5b50505050565b80356001600160a01b03811681146100ff575f5ffd5b919050565b634e487b7160e01b5f52604160045260245ffd5b5f5f5f5f6080858703121561012b575f5ffd5b610134856100e9565b935060208501359250604085013567ffffffffffffffff811115610156575f5ffd5b8501601f81018713610166575f5ffd5b803567ffffffffffffffff81111561018057610180610104565b604051601f8201601f19908116603f0116810167ffffffffffffffff811182821017156101af576101af610104565b6040528181528282016020018910156101c6575f5ffd5b816020840160208301375f602083830101528094505050506101ea606086016100e9565b90509295919450925056fea264697066735822122080c7947c32aec63f75110235481bfcd501e1a36c05c45d7762a2fd28d923be4464736f6c634300081c0033",
  "linkReferences": {},
  "deployedLinkReferences": {},
  "immutableReferences": {
    "32": [
      {
        "length": 32,
        "start": 93
      },
      {
        "length": 32,
        "start": 166
      }
    ]
  },
  "inputSourceName": "project/contracts/tests/mocks/MockAdapter.sol",
  "buildInfoId": "solc-0_8_28-cbfe939248733e579f9b33844e4b3687470f809c"
}